{
  "_format": "hh-sol-artifact-1",
  "contractName": "MockEbookNFT",
  "sourceName": "contracts/MockEbookNFT.sol",
  "abi": [
    {
      "inputs": [
        {
          "internalType": "address",
          "name": "user",
          "type": "address"
        },
        {
          "internalType": "uint256",
          "name": "ebookId",
          "type": "uint256"
        }
      ],
      "name": "hasEbookNFT",
      "outputs": [
        {
          "internalType": "bool",
          "name": "",
          "type": "bool"
        }
      ],
      "stateMutability": "view",
      "type": "function"
    },
    {
      "inputs": [
        {
          "internalType": "address",
          "name": "user",
          "type": "address"
        },
        {
          "internalType": "uint256",
          "name": "ebookId",
          "type": "uint256"
        }
      ],
      "name": "hasEbookNFTByEbookId",
      "outputs": [
        {
          "internalType": "bool",
          "name": "",
          "type": "bool"
        }
      ],
      "stateMutability": "view",
      "type": "function"
    },
    {
      "inputs": [
        {
          "internalType": "address",
          "name": "to",
          "type": "address"
        },
        {
          "internalType": "string",
          "name": "uri",
          "type": "string"
        },
        {
          "internalType": "uint256",
          "name": "ebookId",
          "type": "uint256"
        }
      ],
      "name": "mintEbook",
      "outputs": [],
      "stateMutability": "nonpayable",
      "type": "function"
    },
    {
      "inputs": [],
      "name": "mintEbookCalledWith",
      "outputs": [
        {
          "internalType": "address",
          "name": "",
          "type": "address"
        },
        {
          "internalType": "string",
          "name": "",
          "type": "string"
        }
      ],
      "stateMutability": "view",
      "type": "function"
    },
    {
      "inputs": [
        {
          "internalType": "address",
          "name": "user",
          "type": "address"
        },
        {
          "internalType": "uint256",
          "name": "ebookId",
          "type": "uint256"
        },
        {
          "internalType": "bool",
          "name": "hasNFT",
          "type": "bool"
        }
      ],
      "name": "setHasEbookNFT",
      "outputs": [],
      "stateMutability": "nonpayable",
      "type": "function"
    },
    {
      "inputs": [
        {
          "internalType": "bool",
          "name": "success",
          "type": "bool"
        }
      ],
      "name": "setMintEbookSuccess",
      "outputs": [],
      "stateMutability": "nonpayable",
      "type": "function"
    }
  ],
  "bytecode": "0x608060405260018060006101000a81548160ff02191690831515021790555034801561002a57600080fd5b50610bf28061003a6000396000f3fe608060405234801561001057600080fd5b50600436106100625760003560e01c80631d65a8c214610067578063356d4d50146100975780635e642831146100b357806372d2205c146100d25780639853b161146100ee578063f934eef21461011e575b600080fd5b610081600480360381019061007c91906104dd565b61013a565b60405161008e9190610538565b60405180910390f35b6100b160048036038101906100ac9190610699565b6101a1565b005b6100bb610282565b6040516100c9929190610796565b60405180910390f35b6100ec60048036038101906100e791906107f2565b610345565b005b610108600480360381019061010391906104dd565b610362565b6040516101159190610538565b60405180910390f35b6101386004803603810190610133919061081f565b6103c9565b005b60008060008473ffffffffffffffffffffffffffffffffffffffff1673ffffffffffffffffffffffffffffffffffffffff168152602001908152602001600020600083815260200190815260200160002060009054906101000a900460ff16905092915050565b60405180604001604052808473ffffffffffffffffffffffffffffffffffffffff16815260200183815250600260008201518160000160006101000a81548173ffffffffffffffffffffffffffffffffffffffff021916908373ffffffffffffffffffffffffffffffffffffffff160217905550602082015181600101908161022a9190610a7e565b50905050600160009054906101000a900460ff1661027d576040517f08c379a000000000000000000000000000000000000000000000000000000000815260040161027490610b9c565b60405180910390fd5b505050565b60006060600260000160009054906101000a900473ffffffffffffffffffffffffffffffffffffffff1660026001018080546102bd906108a1565b80601f01602080910402602001604051908101604052809291908181526020018280546102e9906108a1565b80156103365780601f1061030b57610100808354040283529160200191610336565b820191906000526020600020905b81548152906001019060200180831161031957829003601f168201915b50505050509050915091509091565b80600160006101000a81548160ff02191690831515021790555050565b60008060008473ffffffffffffffffffffffffffffffffffffffff1673ffffffffffffffffffffffffffffffffffffffff168152602001908152602001600020600083815260200190815260200160002060009054906101000a900460ff16905092915050565b806000808573ffffffffffffffffffffffffffffffffffffffff1673ffffffffffffffffffffffffffffffffffffffff168152602001908152602001600020600084815260200190815260200160002060006101000a81548160ff021916908315150217905550505050565b6000604051905090565b600080fd5b600080fd5b600073ffffffffffffffffffffffffffffffffffffffff82169050919050565b600061047482610449565b9050919050565b61048481610469565b811461048f57600080fd5b50565b6000813590506104a18161047b565b92915050565b6000819050919050565b6104ba816104a7565b81146104c557600080fd5b50565b6000813590506104d7816104b1565b92915050565b600080604083850312156104f4576104f361043f565b5b600061050285828601610492565b9250506020610513858286016104c8565b9150509250929050565b60008115159050919050565b6105328161051d565b82525050565b600060208201905061054d6000830184610529565b92915050565b600080fd5b600080fd5b6000601f19601f8301169050919050565b7f4e487b7100000000000000000000000000000000000000000000000000000000600052604160045260246000fd5b6105a68261055d565b810181811067ffffffffffffffff821117156105c5576105c461056e565b5b80604052505050565b60006105d8610435565b90506105e4828261059d565b919050565b600067ffffffffffffffff8211156106045761060361056e565b5b61060d8261055d565b9050602081019050919050565b82818337600083830152505050565b600061063c610637846105e9565b6105ce565b90508281526020810184848401111561065857610657610558565b5b61066384828561061a565b509392505050565b600082601f8301126106805761067f610553565b5b8135610690848260208601610629565b91505092915050565b6000806000606084860312156106b2576106b161043f565b5b60006106c086828701610492565b935050602084013567ffffffffffffffff8111156106e1576106e0610444565b5b6106ed8682870161066b565b92505060406106fe868287016104c8565b9150509250925092565b61071181610469565b82525050565b600081519050919050565b600082825260208201905092915050565b60005b83811015610751578082015181840152602081019050610736565b60008484015250505050565b600061076882610717565b6107728185610722565b9350610782818560208601610733565b61078b8161055d565b840191505092915050565b60006040820190506107ab6000830185610708565b81810360208301526107bd818461075d565b90509392505050565b6107cf8161051d565b81146107da57600080fd5b50565b6000813590506107ec816107c6565b92915050565b6000602082840312156108085761080761043f565b5b6000610816848285016107dd565b91505092915050565b6000806000606084860312156108385761083761043f565b5b600061084686828701610492565b9350506020610857868287016104c8565b9250506040610868868287016107dd565b9150509250925092565b7f4e487b7100000000000000000000000000000000000000000000000000000000600052602260045260246000fd5b600060028204905060018216806108b957607f821691505b6020821081036108cc576108cb610872565b5b50919050565b60008190508160005260206000209050919050565b60006020601f8301049050919050565b600082821b905092915050565b6000600883026109347fffffffffffffffffffffffffffffffffffffffffffffffffffffffffffffffff826108f7565b61093e86836108f7565b95508019841693508086168417925050509392505050565b6000819050919050565b600061097b610976610971846104a7565b610956565b6104a7565b9050919050565b6000819050919050565b61099583610960565b6109a96109a182610982565b848454610904565b825550505050565b600090565b6109be6109b1565b6109c981848461098c565b505050565b5b818110156109ed576109e26000826109b6565b6001810190506109cf565b5050565b601f821115610a3257610a03816108d2565b610a0c846108e7565b81016020851015610a1b578190505b610a2f610a27856108e7565b8301826109ce565b50505b505050565b600082821c905092915050565b6000610a5560001984600802610a37565b1980831691505092915050565b6000610a6e8383610a44565b9150826002028217905092915050565b610a8782610717565b67ffffffffffffffff811115610aa057610a9f61056e565b5b610aaa82546108a1565b610ab58282856109f1565b600060209050601f831160018114610ae85760008415610ad6578287015190505b610ae08582610a62565b865550610b48565b601f198416610af6866108d2565b60005b82811015610b1e57848901518255600182019150602085019450602081019050610af9565b86831015610b3b5784890151610b37601f891682610a44565b8355505b6001600288020188555050505b505050505050565b7f4d6f636b45626f6f6b4e46543a204d696e74206661696c656400000000000000600082015250565b6000610b86601983610722565b9150610b9182610b50565b602082019050919050565b60006020820190508181036000830152610bb581610b79565b905091905056fea26469706673582212201a66759ea0c006d8089bbdd0365f8870f9282f8acab2f1884c0c9b9751e49f2a64736f6c63430008160033",
  "linkReferences": {},
  "deployedLinkReferences": {}
}