{
  "_format": "hh-sol-artifact-1",
  "contractName": "EbookRevenueDistribution",
  "sourceName": "contracts/EbookRevenueDistribution.sol",
  "abi": [
    {
      "inputs": [],
      "stateMutability": "nonpayable",
      "type": "constructor"
    },
    {
      "inputs": [
        {
          "internalType": "address",
          "name": "target",
          "type": "address"
        }
      ],
      "name": "AddressEmptyCode",
      "type": "error"
    },
    {
      "inputs": [],
      "name": "AuthorAddressCannotBeZero",
      "type": "error"
    },
    {
      "inputs": [],
      "name": "AuthorAddressNotSet",
      "type": "error"
    },
    {
      "inputs": [
        {
          "internalType": "address",
          "name": "implementation",
          "type": "address"
        }
      ],
      "name": "ERC1967InvalidImplementation",
      "type": "error"
    },
    {
      "inputs": [],
      "name": "ERC1967NonPayable",
      "type": "error"
    },
    {
      "inputs": [],
      "name": "FailedCall",
      "type": "error"
    },
    {
      "inputs": [],
      "name": "InvalidInitialization",
      "type": "error"
    },
    {
      "inputs": [],
      "name": "NoEarningsToWithdraw",
      "type": "error"
    },
    {
      "inputs": [],
      "name": "NotInitializing",
      "type": "error"
    },
    {
      "inputs": [],
      "name": "OnlySalesDistributorCanDistributeRevenue",
      "type": "error"
    },
    {
      "inputs": [],
      "name": "OnlySalesDistributorCanSendUploadFees",
      "type": "error"
    },
    {
      "inputs": [
        {
          "internalType": "address",
          "name": "owner",
          "type": "address"
        }
      ],
      "name": "OwnableInvalidOwner",
      "type": "error"
    },
    {
      "inputs": [
        {
          "internalType": "address",
          "name": "account",
          "type": "address"
        }
      ],
      "name": "OwnableUnauthorizedAccount",
      "type": "error"
    },
    {
      "inputs": [],
      "name": "PlatformAddressCannotBeZero",
      "type": "error"
    },
    {
      "inputs": [],
      "name": "PlatformAddressNotSet",
      "type": "error"
    },
    {
      "inputs": [
        {
          "internalType": "address",
          "name": "token",
          "type": "address"
        }
      ],
      "name": "SafeERC20FailedOperation",
      "type": "error"
    },
    {
      "inputs": [],
      "name": "SalesDistributorCannotBeZeroAddress",
      "type": "error"
    },
    {
      "inputs": [],
      "name": "TotalDistributedExceedsTotalRevenue",
      "type": "error"
    },
    {
      "inputs": [],
      "name": "UUPSUnauthorizedCallContext",
      "type": "error"
    },
    {
      "inputs": [
        {
          "internalType": "bytes32",
          "name": "slot",
          "type": "bytes32"
        }
      ],
      "name": "UUPSUnsupportedProxiableUUID",
      "type": "error"
    },
    {
      "inputs": [],
      "name": "UploadFeeMustBeGreaterThanZero",
      "type": "error"
    },
    {
      "inputs": [],
      "name": "WithdrawFailed",
      "type": "error"
    },
    {
      "anonymous": false,
      "inputs": [
        {
          "indexed": true,
          "internalType": "address",
          "name": "oldAddress",
          "type": "address"
        },
        {
          "indexed": true,
          "internalType": "address",
          "name": "newAddress",
          "type": "address"
        }
      ],
      "name": "AuthorAddressSet",
      "type": "event"
    },
    {
      "anonymous": false,
      "inputs": [
        {
          "indexed": true,
          "internalType": "address",
          "name": "author",
          "type": "address"
        },
        {
          "indexed": false,
          "internalType": "uint256",
          "name": "amount",
          "type": "uint256"
        }
      ],
      "name": "AuthorEarningsWithdrawn",
      "type": "event"
    },
    {
      "anonymous": false,
      "inputs": [
        {
          "indexed": true,
          "internalType": "address",
          "name": "distributor",
          "type": "address"
        },
        {
          "indexed": false,
          "internalType": "uint256",
          "name": "amount",
          "type": "uint256"
        }
      ],
      "name": "DistributorEarningsWithdrawn",
      "type": "event"
    },
    {
      "anonymous": false,
      "inputs": [
        {
          "indexed": false,
          "internalType": "uint64",
          "name": "version",
          "type": "uint64"
        }
      ],
      "name": "Initialized",
      "type": "event"
    },
    {
      "anonymous": false,
      "inputs": [
        {
          "indexed": true,
          "internalType": "address",
          "name": "previousOwner",
          "type": "address"
        },
        {
          "indexed": true,
          "internalType": "address",
          "name": "newOwner",
          "type": "address"
        }
      ],
      "name": "OwnershipTransferred",
      "type": "event"
    },
    {
      "anonymous": false,
      "inputs": [
        {
          "indexed": true,
          "internalType": "address",
          "name": "oldAddress",
          "type": "address"
        },
        {
          "indexed": true,
          "internalType": "address",
          "name": "newAddress",
          "type": "address"
        }
      ],
      "name": "PlatformAddressSet",
      "type": "event"
    },
    {
      "anonymous": false,
      "inputs": [
        {
          "indexed": true,
          "internalType": "uint256",
          "name": "ebookId",
          "type": "uint256"
        },
        {
          "indexed": false,
          "internalType": "uint256",
          "name": "totalAmount",
          "type": "uint256"
        },
        {
          "indexed": true,
          "internalType": "address",
          "name": "authorRecipient",
          "type": "address"
        },
        {
          "indexed": false,
          "internalType": "address",
          "name": "platformRecipient",
          "type": "address"
        },
        {
          "indexed": true,
          "internalType": "address",
          "name": "referrer",
          "type": "address"
        },
        {
          "indexed": false,
          "internalType": "uint256",
          "name": "authorAmount",
          "type": "uint256"
        },
        {
          "indexed": false,
          "internalType": "uint256",
          "name": "platformAmount",
          "type": "uint256"
        },
        {
          "indexed": false,
          "internalType": "uint256",
          "name": "referrerAmount",
          "type": "uint256"
        }
      ],
      "name": "RevenueDistributed",
      "type": "event"
    },
    {
      "anonymous": false,
      "inputs": [
        {
          "indexed": true,
          "internalType": "address",
          "name": "oldAddress",
          "type": "address"
        },
        {
          "indexed": true,
          "internalType": "address",
          "name": "newAddress",
          "type": "address"
        }
      ],
      "name": "SalesDistributorSet",
      "type": "event"
    },
    {
      "anonymous": false,
      "inputs": [
        {
          "indexed": true,
          "internalType": "address",
          "name": "implementation",
          "type": "address"
        }
      ],
      "name": "Upgraded",
      "type": "event"
    },
    {
      "anonymous": false,
      "inputs": [
        {
          "indexed": true,
          "internalType": "address",
          "name": "from",
          "type": "address"
        },
        {
          "indexed": true,
          "internalType": "address",
          "name": "tokenAddress",
          "type": "address"
        },
        {
          "indexed": false,
          "internalType": "uint256",
          "name": "amount",
          "type": "uint256"
        }
      ],
      "name": "UploadFeeReceived",
      "type": "event"
    },
    {
      "inputs": [],
      "name": "PLATFORM_SHARE_BPS",
      "outputs": [
        {
          "internalType": "uint256",
          "name": "",
          "type": "uint256"
        }
      ],
      "stateMutability": "view",
      "type": "function"
    },
    {
      "inputs": [],
      "name": "UPGRADE_INTERFACE_VERSION",
      "outputs": [
        {
          "internalType": "string",
          "name": "",
          "type": "string"
        }
      ],
      "stateMutability": "view",
      "type": "function"
    },
    {
      "inputs": [],
      "name": "authorAddress",
      "outputs": [
        {
          "internalType": "address",
          "name": "",
          "type": "address"
        }
      ],
      "stateMutability": "view",
      "type": "function"
    },
    {
      "inputs": [
        {
          "internalType": "address",
          "name": "",
          "type": "address"
        }
      ],
      "name": "authorEarnings",
      "outputs": [
        {
          "internalType": "uint256",
          "name": "",
          "type": "uint256"
        }
      ],
      "stateMutability": "view",
      "type": "function"
    },
    {
      "inputs": [
        {
          "internalType": "uint256",
          "name": "amount",
          "type": "uint256"
        },
        {
          "internalType": "uint256",
          "name": "ebookId",
          "type": "uint256"
        },
        {
          "internalType": "address",
          "name": "referrer",
          "type": "address"
        }
      ],
      "name": "distributeRevenue",
      "outputs": [],
      "stateMutability": "nonpayable",
      "type": "function"
    },
    {
      "inputs": [
        {
          "internalType": "address",
          "name": "",
          "type": "address"
        }
      ],
      "name": "distributorEarnings",
      "outputs": [
        {
          "internalType": "uint256",
          "name": "",
          "type": "uint256"
        }
      ],
      "stateMutability": "view",
      "type": "function"
    },
    {
      "inputs": [
        {
          "internalType": "address",
          "name": "initialOwner",
          "type": "address"
        },
        {
          "internalType": "address",
          "name": "_salesTokenAddress",
          "type": "address"
        },
        {
          "internalType": "address",
          "name": "_uploadFeeTokenAddress",
          "type": "address"
        }
      ],
      "name": "initialize",
      "outputs": [],
      "stateMutability": "nonpayable",
      "type": "function"
    },
    {
      "inputs": [],
      "name": "owner",
      "outputs": [
        {
          "internalType": "address",
          "name": "",
          "type": "address"
        }
      ],
      "stateMutability": "view",
      "type": "function"
    },
    {
      "inputs": [],
      "name": "platformAddress",
      "outputs": [
        {
          "internalType": "address",
          "name": "",
          "type": "address"
        }
      ],
      "stateMutability": "view",
      "type": "function"
    },
    {
      "inputs": [],
      "name": "proxiableUUID",
      "outputs": [
        {
          "internalType": "bytes32",
          "name": "",
          "type": "bytes32"
        }
      ],
      "stateMutability": "view",
      "type": "function"
    },
    {
      "inputs": [
        {
          "internalType": "address",
          "name": "_tokenAddress",
          "type": "address"
        },
        {
          "internalType": "uint256",
          "name": "amount",
          "type": "uint256"
        }
      ],
      "name": "receiveUploadFee",
      "outputs": [],
      "stateMutability": "nonpayable",
      "type": "function"
    },
    {
      "inputs": [],
      "name": "renounceOwnership",
      "outputs": [],
      "stateMutability": "nonpayable",
      "type": "function"
    },
    {
      "inputs": [],
      "name": "salesDistributor",
      "outputs": [
        {
          "internalType": "address",
          "name": "",
          "type": "address"
        }
      ],
      "stateMutability": "view",
      "type": "function"
    },
    {
      "inputs": [],
      "name": "salesToken",
      "outputs": [
        {
          "internalType": "contract IERC20",
          "name": "",
          "type": "address"
        }
      ],
      "stateMutability": "view",
      "type": "function"
    },
    {
      "inputs": [
        {
          "internalType": "address",
          "name": "_newAuthorAddress",
          "type": "address"
        }
      ],
      "name": "setAuthorAddress",
      "outputs": [],
      "stateMutability": "nonpayable",
      "type": "function"
    },
    {
      "inputs": [
        {
          "internalType": "address",
          "name": "_newPlatformAddress",
          "type": "address"
        }
      ],
      "name": "setPlatformAddress",
      "outputs": [],
      "stateMutability": "nonpayable",
      "type": "function"
    },
    {
      "inputs": [
        {
          "internalType": "address",
          "name": "_salesDistributor",
          "type": "address"
        }
      ],
      "name": "setSalesDistributor",
      "outputs": [],
      "stateMutability": "nonpayable",
      "type": "function"
    },
    {
      "inputs": [
        {
          "internalType": "address",
          "name": "newOwner",
          "type": "address"
        }
      ],
      "name": "transferOwnership",
      "outputs": [],
      "stateMutability": "nonpayable",
      "type": "function"
    },
    {
      "inputs": [
        {
          "internalType": "address",
          "name": "newImplementation",
          "type": "address"
        },
        {
          "internalType": "bytes",
          "name": "data",
          "type": "bytes"
        }
      ],
      "name": "upgradeToAndCall",
      "outputs": [],
      "stateMutability": "payable",
      "type": "function"
    },
    {
      "inputs": [],
      "name": "uploadFeeToken",
      "outputs": [
        {
          "internalType": "contract IERC20",
          "name": "",
          "type": "address"
        }
      ],
      "stateMutability": "view",
      "type": "function"
    },
    {
      "inputs": [
        {
          "internalType": "address",
          "name": "_tokenAddress",
          "type": "address"
        },
        {
          "internalType": "address",
          "name": "_to",
          "type": "address"
        },
        {
          "internalType": "uint256",
          "name": "_amount",
          "type": "uint256"
        }
      ],
      "name": "withdrawAnyERC20Token",
      "outputs": [],
      "stateMutability": "nonpayable",
      "type": "function"
    },
    {
      "inputs": [],
      "name": "withdrawAuthorEarnings",
      "outputs": [],
      "stateMutability": "nonpayable",
      "type": "function"
    },
    {
      "inputs": [],
      "name": "withdrawDistributorEarnings",
      "outputs": [],
      "stateMutability": "nonpayable",
      "type": "function"
    },
    {
      "inputs": [
        {
          "internalType": "address payable",
          "name": "_to",
          "type": "address"
        },
        {
          "internalType": "uint256",
          "name": "_amount",
          "type": "uint256"
        }
      ],
      "name": "withdrawNativeToken",
      "outputs": [],
      "stateMutability": "nonpayable",
      "type": "function"
    },
    {
      "stateMutability": "payable",
      "type": "receive"
    }
  ],
  "bytecode": "0x60a06040523073ffffffffffffffffffffffffffffffffffffffff1660809073ffffffffffffffffffffffffffffffffffffffff1681525034801561004357600080fd5b506080516130dc61006d60003960008181611c2701528181611c7c0152611e3701526130dc6000f3fe60806040526004361061014f5760003560e01c8063a950eb9b116100b6578063cc03c3421161006f578063cc03c3421461041c578063d099b35f14610445578063d84643541461046e578063dbe55e5614610499578063ddfa1b02146104c4578063f2fde38b1461050157610156565b8063a950eb9b14610322578063ad3cb1cc14610339578063c0c53b8b14610364578063c4b9f7741461038d578063c6e36189146103ca578063cad53780146103f357610156565b8063536c6bfa11610108578063536c6bfa1461024a5780635647f8dc146102735780636338f25e1461028a578063715018a6146102b557806372da776e146102cc5780638da5cb5b146102f757610156565b806302a867811461015b5780632313bf90146101865780633b849b88146101b15780633c10cb7b146101da5780634f1ef2861461020357806352d1902d1461021f57610156565b3661015657005b600080fd5b34801561016757600080fd5b5061017061052a565b60405161017d91906125a1565b60405180910390f35b34801561019257600080fd5b5061019b610550565b6040516101a8919061261b565b60405180910390f35b3480156101bd57600080fd5b506101d860048036038101906101d391906126ac565b610576565b005b3480156101e657600080fd5b5061020160048036038101906101fc91906126ff565b610b7d565b005b61021d60048036038101906102189190612898565b610bb5565b005b34801561022b57600080fd5b50610234610bd4565b604051610241919061290d565b60405180910390f35b34801561025657600080fd5b50610271600480360381019061026c9190612966565b610c07565b005b34801561027f57600080fd5b50610288610cc0565b005b34801561029657600080fd5b5061029f610eaf565b6040516102ac91906125a1565b60405180910390f35b3480156102c157600080fd5b506102ca610ed5565b005b3480156102d857600080fd5b506102e1610ee9565b6040516102ee919061261b565b60405180910390f35b34801561030357600080fd5b5061030c610f0d565b60405161031991906125a1565b60405180910390f35b34801561032e57600080fd5b50610337610f45565b005b34801561034557600080fd5b5061034e611134565b60405161035b9190612a25565b60405180910390f35b34801561037057600080fd5b5061038b60048036038101906103869190612a47565b61116d565b005b34801561039957600080fd5b506103b460048036038101906103af9190612a9a565b611465565b6040516103c19190612ad6565b60405180910390f35b3480156103d657600080fd5b506103f160048036038101906103ec9190612af1565b61147d565b005b3480156103ff57600080fd5b5061041a60048036038101906104159190612a9a565b6116cb565b005b34801561042857600080fd5b50610443600480360381019061043e9190612a9a565b6117f9565b005b34801561045157600080fd5b5061046c60048036038101906104679190612a9a565b611927565b005b34801561047a57600080fd5b50610483611a55565b6040516104909190612ad6565b60405180910390f35b3480156104a557600080fd5b506104ae611a5b565b6040516104bb91906125a1565b60405180910390f35b3480156104d057600080fd5b506104eb60048036038101906104e69190612a9a565b611a81565b6040516104f89190612ad6565b60405180910390f35b34801561050d57600080fd5b5061052860048036038101906105239190612a9a565b611a99565b005b600260009054906101000a900473ffffffffffffffffffffffffffffffffffffffff1681565b600160009054906101000a900473ffffffffffffffffffffffffffffffffffffffff1681565b600460009054906101000a900473ffffffffffffffffffffffffffffffffffffffff1673ffffffffffffffffffffffffffffffffffffffff163373ffffffffffffffffffffffffffffffffffffffff16146105fd576040517f7a46efb100000000000000000000000000000000000000000000000000000000815260040160405180910390fd5b600073ffffffffffffffffffffffffffffffffffffffff16600360009054906101000a900473ffffffffffffffffffffffffffffffffffffffff1673ffffffffffffffffffffffffffffffffffffffff1603610685576040517ff6a08eae00000000000000000000000000000000000000000000000000000000815260040160405180910390fd5b6000600460009054906101000a900473ffffffffffffffffffffffffffffffffffffffff16905060008173ffffffffffffffffffffffffffffffffffffffff16638947d357856040518263ffffffff1660e01b81526004016106e79190612ad6565b602060405180830381865afa158015610704573d6000803e3d6000fd5b505050506040513d601f19601f820116820180604052508101906107289190612b46565b9050600073ffffffffffffffffffffffffffffffffffffffff168173ffffffffffffffffffffffffffffffffffffffff1603610790576040517fe2f1a76600000000000000000000000000000000000000000000000000000000815260040160405180910390fd5b60008273ffffffffffffffffffffffffffffffffffffffff16630cb63563866040518263ffffffff1660e01b81526004016107cb9190612ad6565b602060405180830381865afa1580156107e8573d6000803e3d6000fd5b505050506040513d601f19601f8201168201806040525081019061080c9190612b88565b905060008373ffffffffffffffffffffffffffffffffffffffff166365ca56fb876040518263ffffffff1660e01b81526004016108499190612ad6565b602060405180830381865afa158015610866573d6000803e3d6000fd5b505050506040513d601f19601f8201168201806040525081019061088a9190612b88565b90506000612710838961089d9190612be4565b6108a79190612c55565b90506000612710838a6108ba9190612be4565b6108c49190612c55565b905060006127106105dc8b6108d99190612be4565b6108e39190612c55565b905060008183856108f49190612c86565b6108fe9190612c86565b90508a81111561093a576040517fdb7ed59400000000000000000000000000000000000000000000000000000000815260040160405180910390fd5b60008290508b82101561096157818c6109539190612cba565b8161095e9190612c86565b90505b600073ffffffffffffffffffffffffffffffffffffffff168a73ffffffffffffffffffffffffffffffffffffffff16036109a85783816109a19190612c86565b9050600093505b6000851115610a085784600560008a73ffffffffffffffffffffffffffffffffffffffff1673ffffffffffffffffffffffffffffffffffffffff1681526020019081526020016000206000828254610a009190612c86565b925050819055505b6000841115610a685783600660008c73ffffffffffffffffffffffffffffffffffffffff1673ffffffffffffffffffffffffffffffffffffffff1681526020019081526020016000206000828254610a609190612c86565b925050819055505b6000811115610adf57610ade600360009054906101000a900473ffffffffffffffffffffffffffffffffffffffff168260008054906101000a900473ffffffffffffffffffffffffffffffffffffffff1673ffffffffffffffffffffffffffffffffffffffff16611b1f9092919063ffffffff16565b5b8973ffffffffffffffffffffffffffffffffffffffff168873ffffffffffffffffffffffffffffffffffffffff168c7f5b8777eecface036ae7977c75d2208315d9306979d5cce736a330fb5609b2f1b8f600360009054906101000a900473ffffffffffffffffffffffffffffffffffffffff168a878b604051610b67959493929190612cee565b60405180910390a4505050505050505050505050565b610b85611b9e565b610bb082828573ffffffffffffffffffffffffffffffffffffffff16611b1f9092919063ffffffff16565b505050565b610bbd611c25565b610bc682611d0b565b610bd08282611d16565b5050565b6000610bde611e35565b7f360894a13ba1a3210667c828492db98dca3e2076cc3735a920a3ca505d382bbc60001b905090565b610c0f611b9e565b60008273ffffffffffffffffffffffffffffffffffffffff1682604051610c3590612d72565b60006040518083038185875af1925050503d8060008114610c72576040519150601f19603f3d011682016040523d82523d6000602084013e610c77565b606091505b5050905080610cbb576040517f08c379a0000000000000000000000000000000000000000000000000000000008152600401610cb290612dd3565b60405180910390fd5b505050565b6000600660003373ffffffffffffffffffffffffffffffffffffffff1673ffffffffffffffffffffffffffffffffffffffff16815260200190815260200160002054905060008103610d3e576040517f522ad79c00000000000000000000000000000000000000000000000000000000815260040160405180910390fd5b6000600660003373ffffffffffffffffffffffffffffffffffffffff1673ffffffffffffffffffffffffffffffffffffffff1681526020019081526020016000208190555060008060009054906101000a900473ffffffffffffffffffffffffffffffffffffffff1673ffffffffffffffffffffffffffffffffffffffff1663a9059cbb33846040518363ffffffff1660e01b8152600401610de1929190612df3565b6020604051808303816000875af1158015610e00573d6000803e3d6000fd5b505050506040513d601f19601f82011682018060405250810190610e249190612e54565b905080610e5d576040517f750b219c00000000000000000000000000000000000000000000000000000000815260040160405180910390fd5b3373ffffffffffffffffffffffffffffffffffffffff167f5586871e176f69d492266002420aa30b65c3c31378df11939d31b521a9ac225e83604051610ea39190612ad6565b60405180910390a25050565b600460009054906101000a900473ffffffffffffffffffffffffffffffffffffffff1681565b610edd611b9e565b610ee76000611ebc565b565b60008054906101000a900473ffffffffffffffffffffffffffffffffffffffff1681565b600080610f18611f93565b90508060000160009054906101000a900473ffffffffffffffffffffffffffffffffffffffff1691505090565b6000600560003373ffffffffffffffffffffffffffffffffffffffff1673ffffffffffffffffffffffffffffffffffffffff16815260200190815260200160002054905060008103610fc3576040517f522ad79c00000000000000000000000000000000000000000000000000000000815260040160405180910390fd5b6000600560003373ffffffffffffffffffffffffffffffffffffffff1673ffffffffffffffffffffffffffffffffffffffff1681526020019081526020016000208190555060008060009054906101000a900473ffffffffffffffffffffffffffffffffffffffff1673ffffffffffffffffffffffffffffffffffffffff1663a9059cbb33846040518363ffffffff1660e01b8152600401611066929190612df3565b6020604051808303816000875af1158015611085573d6000803e3d6000fd5b505050506040513d601f19601f820116820180604052508101906110a99190612e54565b9050806110e2576040517f750b219c00000000000000000000000000000000000000000000000000000000815260040160405180910390fd5b3373ffffffffffffffffffffffffffffffffffffffff167f5b259c6e8a3fa329813f5823204d67c72f49662c5bb5fce877323c38f6f242d2836040516111289190612ad6565b60405180910390a25050565b6040518060400160405280600581526020017f352e302e3000000000000000000000000000000000000000000000000000000081525081565b6000611177611fbb565b905060008160000160089054906101000a900460ff1615905060008260000160009054906101000a900467ffffffffffffffff1690506000808267ffffffffffffffff161480156111c55750825b9050600060018367ffffffffffffffff161480156111fa575060003073ffffffffffffffffffffffffffffffffffffffff163b145b905081158015611208575080155b1561123f576040517ff92ee8a900000000000000000000000000000000000000000000000000000000815260040160405180910390fd5b60018560000160006101000a81548167ffffffffffffffff021916908367ffffffffffffffff160217905550831561128f5760018560000160086101000a81548160ff0219169083151502179055505b61129888611fcf565b6112a0611fe3565b600073ffffffffffffffffffffffffffffffffffffffff168773ffffffffffffffffffffffffffffffffffffffff160361130f576040517f08c379a000000000000000000000000000000000000000000000000000000000815260040161130690612ecd565b60405180910390fd5b866000806101000a81548173ffffffffffffffffffffffffffffffffffffffff021916908373ffffffffffffffffffffffffffffffffffffffff160217905550600073ffffffffffffffffffffffffffffffffffffffff168673ffffffffffffffffffffffffffffffffffffffff16036113be576040517f08c379a00000000000000000000000000000000000000000000000000000000081526004016113b590612f39565b60405180910390fd5b85600160006101000a81548173ffffffffffffffffffffffffffffffffffffffff021916908373ffffffffffffffffffffffffffffffffffffffff160217905550831561145b5760008560000160086101000a81548160ff0219169083151502179055507fc7f505b2f371ae2175ee4913f4499e1f2633a7b5936321eed1cdaeb6115181d260016040516114529190612fa8565b60405180910390a15b5050505050505050565b60056020528060005260406000206000915090505481565b600460009054906101000a900473ffffffffffffffffffffffffffffffffffffffff1673ffffffffffffffffffffffffffffffffffffffff163373ffffffffffffffffffffffffffffffffffffffff1614611504576040517f1c7ad58e00000000000000000000000000000000000000000000000000000000815260040160405180910390fd5b600073ffffffffffffffffffffffffffffffffffffffff16600360009054906101000a900473ffffffffffffffffffffffffffffffffffffffff1673ffffffffffffffffffffffffffffffffffffffff160361158c576040517ff6a08eae00000000000000000000000000000000000000000000000000000000815260040160405180910390fd5b600081036115c6576040517f30674ecf00000000000000000000000000000000000000000000000000000000815260040160405180910390fd5b6115f33330838573ffffffffffffffffffffffffffffffffffffffff16611fed909392919063ffffffff16565b611640600360009054906101000a900473ffffffffffffffffffffffffffffffffffffffff16828473ffffffffffffffffffffffffffffffffffffffff16611b1f9092919063ffffffff16565b8173ffffffffffffffffffffffffffffffffffffffff16600460009054906101000a900473ffffffffffffffffffffffffffffffffffffffff1673ffffffffffffffffffffffffffffffffffffffff167fffd18a1023ac918d9072ec17fa0355d9bd30a611d0299d4aacb18029e7688fda836040516116bf9190612ad6565b60405180910390a35050565b6116d3611b9e565b600073ffffffffffffffffffffffffffffffffffffffff168173ffffffffffffffffffffffffffffffffffffffff1603611739576040517f9491ea9700000000000000000000000000000000000000000000000000000000815260040160405180910390fd5b8073ffffffffffffffffffffffffffffffffffffffff16600460009054906101000a900473ffffffffffffffffffffffffffffffffffffffff1673ffffffffffffffffffffffffffffffffffffffff167ff72fabee791c9eab3264b7ba96f522d4dc7c60e856bcf39ee4b34d8853808d9c60405160405180910390a380600460006101000a81548173ffffffffffffffffffffffffffffffffffffffff021916908373ffffffffffffffffffffffffffffffffffffffff16021790555050565b611801611b9e565b600073ffffffffffffffffffffffffffffffffffffffff168173ffffffffffffffffffffffffffffffffffffffff1603611867576040517f66a7123500000000000000000000000000000000000000000000000000000000815260040160405180910390fd5b8073ffffffffffffffffffffffffffffffffffffffff16600360009054906101000a900473ffffffffffffffffffffffffffffffffffffffff1673ffffffffffffffffffffffffffffffffffffffff167f23fd11d45c32e9438dfe2d3d8c03d0ed72ce765bb760aa72b8d338e4142bd09e60405160405180910390a380600360006101000a81548173ffffffffffffffffffffffffffffffffffffffff021916908373ffffffffffffffffffffffffffffffffffffffff16021790555050565b61192f611b9e565b600073ffffffffffffffffffffffffffffffffffffffff168173ffffffffffffffffffffffffffffffffffffffff1603611995576040517f80b00ef200000000000000000000000000000000000000000000000000000000815260040160405180910390fd5b8073ffffffffffffffffffffffffffffffffffffffff16600260009054906101000a900473ffffffffffffffffffffffffffffffffffffffff1673ffffffffffffffffffffffffffffffffffffffff167f7095bedca03e63b383f2757a9e8de5546ad35c4f7953fe5615f3273223cd952d60405160405180910390a380600260006101000a81548173ffffffffffffffffffffffffffffffffffffffff021916908373ffffffffffffffffffffffffffffffffffffffff16021790555050565b6105dc81565b600360009054906101000a900473ffffffffffffffffffffffffffffffffffffffff1681565b60066020528060005260406000206000915090505481565b611aa1611b9e565b600073ffffffffffffffffffffffffffffffffffffffff168173ffffffffffffffffffffffffffffffffffffffff1603611b135760006040517f1e4fbdf7000000000000000000000000000000000000000000000000000000008152600401611b0a91906125a1565b60405180910390fd5b611b1c81611ebc565b50565b611b99838473ffffffffffffffffffffffffffffffffffffffff1663a9059cbb8585604051602401611b52929190612df3565b604051602081830303815290604052915060e01b6020820180517bffffffffffffffffffffffffffffffffffffffffffffffffffffffff838183161783525050505061206f565b505050565b611ba6612111565b73ffffffffffffffffffffffffffffffffffffffff16611bc4610f0d565b73ffffffffffffffffffffffffffffffffffffffff1614611c2357611be7612111565b6040517f118cdaa7000000000000000000000000000000000000000000000000000000008152600401611c1a91906125a1565b60405180910390fd5b565b7f000000000000000000000000000000000000000000000000000000000000000073ffffffffffffffffffffffffffffffffffffffff163073ffffffffffffffffffffffffffffffffffffffff161480611cd257507f000000000000000000000000000000000000000000000000000000000000000073ffffffffffffffffffffffffffffffffffffffff16611cb9612119565b73ffffffffffffffffffffffffffffffffffffffff1614155b15611d09576040517fe07c8dba00000000000000000000000000000000000000000000000000000000815260040160405180910390fd5b565b611d13611b9e565b50565b8173ffffffffffffffffffffffffffffffffffffffff166352d1902d6040518163ffffffff1660e01b8152600401602060405180830381865afa925050508015611d7e57506040513d601f19601f82011682018060405250810190611d7b9190612fef565b60015b611dbf57816040517f4c9c8ce3000000000000000000000000000000000000000000000000000000008152600401611db691906125a1565b60405180910390fd5b7f360894a13ba1a3210667c828492db98dca3e2076cc3735a920a3ca505d382bbc60001b8114611e2657806040517faa1d49a4000000000000000000000000000000000000000000000000000000008152600401611e1d919061290d565b60405180910390fd5b611e308383612170565b505050565b7f000000000000000000000000000000000000000000000000000000000000000073ffffffffffffffffffffffffffffffffffffffff163073ffffffffffffffffffffffffffffffffffffffff1614611eba576040517fe07c8dba00000000000000000000000000000000000000000000000000000000815260040160405180910390fd5b565b6000611ec6611f93565b905060008160000160009054906101000a900473ffffffffffffffffffffffffffffffffffffffff169050828260000160006101000a81548173ffffffffffffffffffffffffffffffffffffffff021916908373ffffffffffffffffffffffffffffffffffffffff1602179055508273ffffffffffffffffffffffffffffffffffffffff168173ffffffffffffffffffffffffffffffffffffffff167f8be0079c531659141344cd1fd0a4f28419497f9722a3daafe3b4186f6b6457e060405160405180910390a3505050565b60007f9016d09d72d40fdae2fd8ceac6b6234c7706214fd39c1cd1e609a0528c199300905090565b600080611fc66121e3565b90508091505090565b611fd761220e565b611fe08161224e565b50565b611feb61220e565b565b612069848573ffffffffffffffffffffffffffffffffffffffff166323b872dd8686866040516024016120229392919061301c565b604051602081830303815290604052915060e01b6020820180517bffffffffffffffffffffffffffffffffffffffffffffffffffffffff838183161783525050505061206f565b50505050565b600080602060008451602086016000885af180612092576040513d6000823e3d81fd5b3d9250600051915050600082146120ad5760018114156120c9565b60008473ffffffffffffffffffffffffffffffffffffffff163b145b1561210b57836040517f5274afe700000000000000000000000000000000000000000000000000000000815260040161210291906125a1565b60405180910390fd5b50505050565b600033905090565b60006121477f360894a13ba1a3210667c828492db98dca3e2076cc3735a920a3ca505d382bbc60001b6122d4565b60000160009054906101000a900473ffffffffffffffffffffffffffffffffffffffff16905090565b612179826122de565b8173ffffffffffffffffffffffffffffffffffffffff167fbc7cd75a20ee27fd9adebab32041f755214dbc6bffa90cc0225b39da2e5c2d3b60405160405180910390a26000815111156121d6576121d082826123ab565b506121df565b6121de61242f565b5b5050565b60007ff0c57e16840df040f15088dc2f81fe391c3923bec73e23a9662efc9c229c6a0060001b905090565b61221661246c565b61224c576040517fd7e6bcf800000000000000000000000000000000000000000000000000000000815260040160405180910390fd5b565b61225661220e565b600073ffffffffffffffffffffffffffffffffffffffff168173ffffffffffffffffffffffffffffffffffffffff16036122c85760006040517f1e4fbdf70000000000000000000000000000000000000000000000000000000081526004016122bf91906125a1565b60405180910390fd5b6122d181611ebc565b50565b6000819050919050565b60008173ffffffffffffffffffffffffffffffffffffffff163b0361233a57806040517f4c9c8ce300000000000000000000000000000000000000000000000000000000815260040161233191906125a1565b60405180910390fd5b806123677f360894a13ba1a3210667c828492db98dca3e2076cc3735a920a3ca505d382bbc60001b6122d4565b60000160006101000a81548173ffffffffffffffffffffffffffffffffffffffff021916908373ffffffffffffffffffffffffffffffffffffffff16021790555050565b60606000808473ffffffffffffffffffffffffffffffffffffffff16846040516123d5919061308f565b600060405180830381855af49150503d8060008114612410576040519150601f19603f3d011682016040523d82523d6000602084013e612415565b606091505b509150915061242585838361248c565b9250505092915050565b600034111561246a576040517fb398979f00000000000000000000000000000000000000000000000000000000815260040160405180910390fd5b565b6000612476611fbb565b60000160089054906101000a900460ff16905090565b6060826124a15761249c8261251b565b612513565b600082511480156124c9575060008473ffffffffffffffffffffffffffffffffffffffff163b145b1561250b57836040517f9996b31500000000000000000000000000000000000000000000000000000000815260040161250291906125a1565b60405180910390fd5b819050612514565b5b9392505050565b60008151111561252e5780518082602001fd5b6040517fd6bda27500000000000000000000000000000000000000000000000000000000815260040160405180910390fd5b600073ffffffffffffffffffffffffffffffffffffffff82169050919050565b600061258b82612560565b9050919050565b61259b81612580565b82525050565b60006020820190506125b66000830184612592565b92915050565b6000819050919050565b60006125e16125dc6125d784612560565b6125bc565b612560565b9050919050565b60006125f3826125c6565b9050919050565b6000612605826125e8565b9050919050565b612615816125fa565b82525050565b6000602082019050612630600083018461260c565b92915050565b6000604051905090565b600080fd5b600080fd5b6000819050919050565b61265d8161264a565b811461266857600080fd5b50565b60008135905061267a81612654565b92915050565b61268981612580565b811461269457600080fd5b50565b6000813590506126a681612680565b92915050565b6000806000606084860312156126c5576126c4612640565b5b60006126d38682870161266b565b93505060206126e48682870161266b565b92505060406126f586828701612697565b9150509250925092565b60008060006060848603121561271857612717612640565b5b600061272686828701612697565b935050602061273786828701612697565b92505060406127488682870161266b565b9150509250925092565b600080fd5b600080fd5b6000601f19601f8301169050919050565b7f4e487b7100000000000000000000000000000000000000000000000000000000600052604160045260246000fd5b6127a58261275c565b810181811067ffffffffffffffff821117156127c4576127c361276d565b5b80604052505050565b60006127d7612636565b90506127e3828261279c565b919050565b600067ffffffffffffffff8211156128035761280261276d565b5b61280c8261275c565b9050602081019050919050565b82818337600083830152505050565b600061283b612836846127e8565b6127cd565b90508281526020810184848401111561285757612856612757565b5b612862848285612819565b509392505050565b600082601f83011261287f5761287e612752565b5b813561288f848260208601612828565b91505092915050565b600080604083850312156128af576128ae612640565b5b60006128bd85828601612697565b925050602083013567ffffffffffffffff8111156128de576128dd612645565b5b6128ea8582860161286a565b9150509250929050565b6000819050919050565b612907816128f4565b82525050565b600060208201905061292260008301846128fe565b92915050565b600061293382612560565b9050919050565b61294381612928565b811461294e57600080fd5b50565b6000813590506129608161293a565b92915050565b6000806040838503121561297d5761297c612640565b5b600061298b85828601612951565b925050602061299c8582860161266b565b9150509250929050565b600081519050919050565b600082825260208201905092915050565b60005b838110156129e05780820151818401526020810190506129c5565b60008484015250505050565b60006129f7826129a6565b612a0181856129b1565b9350612a118185602086016129c2565b612a1a8161275c565b840191505092915050565b60006020820190508181036000830152612a3f81846129ec565b905092915050565b600080600060608486031215612a6057612a5f612640565b5b6000612a6e86828701612697565b9350506020612a7f86828701612697565b9250506040612a9086828701612697565b9150509250925092565b600060208284031215612ab057612aaf612640565b5b6000612abe84828501612697565b91505092915050565b612ad08161264a565b82525050565b6000602082019050612aeb6000830184612ac7565b92915050565b60008060408385031215612b0857612b07612640565b5b6000612b1685828601612697565b9250506020612b278582860161266b565b9150509250929050565b600081519050612b4081612680565b92915050565b600060208284031215612b5c57612b5b612640565b5b6000612b6a84828501612b31565b91505092915050565b600081519050612b8281612654565b92915050565b600060208284031215612b9e57612b9d612640565b5b6000612bac84828501612b73565b91505092915050565b7f4e487b7100000000000000000000000000000000000000000000000000000000600052601160045260246000fd5b6000612bef8261264a565b9150612bfa8361264a565b9250828202612c088161264a565b91508282048414831517612c1f57612c1e612bb5565b5b5092915050565b7f4e487b7100000000000000000000000000000000000000000000000000000000600052601260045260246000fd5b6000612c608261264a565b9150612c6b8361264a565b925082612c7b57612c7a612c26565b5b828204905092915050565b6000612c918261264a565b9150612c9c8361264a565b9250828201905080821115612cb457612cb3612bb5565b5b92915050565b6000612cc58261264a565b9150612cd08361264a565b9250828203905081811115612ce857612ce7612bb5565b5b92915050565b600060a082019050612d036000830188612ac7565b612d106020830187612592565b612d1d6040830186612ac7565b612d2a6060830185612ac7565b612d376080830184612ac7565b9695505050505050565b600081905092915050565b50565b6000612d5c600083612d41565b9150612d6782612d4c565b600082019050919050565b6000612d7d82612d4f565b9150819050919050565b7f5472616e73666572206661696c65642e00000000000000000000000000000000600082015250565b6000612dbd6010836129b1565b9150612dc882612d87565b602082019050919050565b60006020820190508181036000830152612dec81612db0565b9050919050565b6000604082019050612e086000830185612592565b612e156020830184612ac7565b9392505050565b60008115159050919050565b612e3181612e1c565b8114612e3c57600080fd5b50565b600081519050612e4e81612e28565b92915050565b600060208284031215612e6a57612e69612640565b5b6000612e7884828501612e3f565b91505092915050565b7f5a65726f2073616c657320746f6b656e20616464726573730000000000000000600082015250565b6000612eb76018836129b1565b9150612ec282612e81565b602082019050919050565b60006020820190508181036000830152612ee681612eaa565b9050919050565b7f5a65726f2075706c6f61642066656520746f6b656e2061646472657373000000600082015250565b6000612f23601d836129b1565b9150612f2e82612eed565b602082019050919050565b60006020820190508181036000830152612f5281612f16565b9050919050565b6000819050919050565b600067ffffffffffffffff82169050919050565b6000612f92612f8d612f8884612f59565b6125bc565b612f63565b9050919050565b612fa281612f77565b82525050565b6000602082019050612fbd6000830184612f99565b92915050565b612fcc816128f4565b8114612fd757600080fd5b50565b600081519050612fe981612fc3565b92915050565b60006020828403121561300557613004612640565b5b600061301384828501612fda565b91505092915050565b60006060820190506130316000830186612592565b61303e6020830185612592565b61304b6040830184612ac7565b949350505050565b600081519050919050565b600061306982613053565b6130738185612d41565b93506130838185602086016129c2565b80840191505092915050565b600061309b828461305e565b91508190509291505056fea26469706673582212205874ec4578c78e0ffe09847d75500dfd776d59b94088cce0df4997d1820250cd64736f6c63430008160033",
  "linkReferences": {},
  "deployedLinkReferences": {}
}