{
  "_format": "hh-sol-artifact-1",
  "contractName": "AttackReentrancy",
  "sourceName": "contracts/AttackReentrancy.sol",
  "abi": [
    {
      "inputs": [
        {
          "internalType": "address payable",
          "name": "_salesDistributor",
          "type": "address"
        },
        {
          "internalType": "address",
          "name": "_paymentToken",
          "type": "address"
        },
        {
          "internalType": "uint256",
          "name": "_ebookId",
          "type": "uint256"
        },
        {
          "internalType": "address",
          "name": "_referrer",
          "type": "address"
        }
      ],
      "stateMutability": "nonpayable",
      "type": "constructor"
    },
    {
      "inputs": [],
      "name": "attack",
      "outputs": [],
      "stateMutability": "nonpayable",
      "type": "function"
    },
    {
      "inputs": [],
      "name": "ebookId",
      "outputs": [
        {
          "internalType": "uint256",
          "name": "",
          "type": "uint256"
        }
      ],
      "stateMutability": "view",
      "type": "function"
    },
    {
      "inputs": [],
      "name": "paymentToken",
      "outputs": [
        {
          "internalType": "contract IERC20",
          "name": "",
          "type": "address"
        }
      ],
      "stateMutability": "view",
      "type": "function"
    },
    {
      "inputs": [],
      "name": "referrer",
      "outputs": [
        {
          "internalType": "address",
          "name": "",
          "type": "address"
        }
      ],
      "stateMutability": "view",
      "type": "function"
    },
    {
      "inputs": [],
      "name": "salesDistributor",
      "outputs": [
        {
          "internalType": "contract EbookSalesDistributor",
          "name": "",
          "type": "address"
        }
      ],
      "stateMutability": "view",
      "type": "function"
    },
    {
      "stateMutability": "payable",
      "type": "receive"
    }
  ],
  "bytecode": "0x608060405234801561001057600080fd5b50604051610954380380610954833981810160405281019061003291906101db565b836000806101000a81548173ffffffffffffffffffffffffffffffffffffffff021916908373ffffffffffffffffffffffffffffffffffffffff16021790555082600160006101000a81548173ffffffffffffffffffffffffffffffffffffffff021916908373ffffffffffffffffffffffffffffffffffffffff1602179055508160028190555080600360006101000a81548173ffffffffffffffffffffffffffffffffffffffff021916908373ffffffffffffffffffffffffffffffffffffffff16021790555050505050610242565b600080fd5b600073ffffffffffffffffffffffffffffffffffffffff82169050919050565b600061013482610109565b9050919050565b61014481610129565b811461014f57600080fd5b50565b6000815190506101618161013b565b92915050565b600061017282610109565b9050919050565b61018281610167565b811461018d57600080fd5b50565b60008151905061019f81610179565b92915050565b6000819050919050565b6101b8816101a5565b81146101c357600080fd5b50565b6000815190506101d5816101af565b92915050565b600080600080608085870312156101f5576101f4610104565b5b600061020387828801610152565b945050602061021487828801610190565b9350506040610225878288016101c6565b925050606061023687828801610190565b91505092959194509250565b610703806102516000396000f3fe60806040526004361061004e5760003560e01c80633013ce29146100f85780636338f25e1461012357806368447c931461014e5780639e5faafc14610179578063ab682b2614610190576100f3565b366100f3576000600160009054906101000a900473ffffffffffffffffffffffffffffffffffffffff1673ffffffffffffffffffffffffffffffffffffffff166370a08231306040518263ffffffff1660e01b81526004016100b09190610484565b602060405180830381865afa1580156100cd573d6000803e3d6000fd5b505050506040513d601f19601f820116820180604052508101906100f191906104da565b005b600080fd5b34801561010457600080fd5b5061010d6101bb565b60405161011a9190610566565b60405180910390f35b34801561012f57600080fd5b506101386101e1565b60405161014591906105b4565b60405180910390f35b34801561015a57600080fd5b50610163610205565b6040516101709190610484565b60405180910390f35b34801561018557600080fd5b5061018e61022b565b005b34801561019c57600080fd5b506101a561043d565b6040516101b291906105de565b60405180910390f35b600160009054906101000a900473ffffffffffffffffffffffffffffffffffffffff1681565b60008054906101000a900473ffffffffffffffffffffffffffffffffffffffff1681565b600360009054906101000a900473ffffffffffffffffffffffffffffffffffffffff1681565b600160009054906101000a900473ffffffffffffffffffffffffffffffffffffffff1673ffffffffffffffffffffffffffffffffffffffff1663095ea7b360008054906101000a900473ffffffffffffffffffffffffffffffffffffffff16600160009054906101000a900473ffffffffffffffffffffffffffffffffffffffff1673ffffffffffffffffffffffffffffffffffffffff166370a08231306040518263ffffffff1660e01b81526004016102e59190610484565b602060405180830381865afa158015610302573d6000803e3d6000fd5b505050506040513d601f19601f8201168201806040525081019061032691906104da565b6040518363ffffffff1660e01b81526004016103439291906105f9565b6020604051808303816000875af1158015610362573d6000803e3d6000fd5b505050506040513d601f19601f82011682018060405250810190610386919061065a565b5060008054906101000a900473ffffffffffffffffffffffffffffffffffffffff1673ffffffffffffffffffffffffffffffffffffffff1663c13fba7a600254600360009054906101000a900473ffffffffffffffffffffffffffffffffffffffff1660006040518463ffffffff1660e01b815260040161040993929190610696565b600060405180830381600087803b15801561042357600080fd5b505af1158015610437573d6000803e3d6000fd5b50505050565b60025481565b600073ffffffffffffffffffffffffffffffffffffffff82169050919050565b600061046e82610443565b9050919050565b61047e81610463565b82525050565b60006020820190506104996000830184610475565b92915050565b600080fd5b6000819050919050565b6104b7816104a4565b81146104c257600080fd5b50565b6000815190506104d4816104ae565b92915050565b6000602082840312156104f0576104ef61049f565b5b60006104fe848285016104c5565b91505092915050565b6000819050919050565b600061052c61052761052284610443565b610507565b610443565b9050919050565b600061053e82610511565b9050919050565b600061055082610533565b9050919050565b61056081610545565b82525050565b600060208201905061057b6000830184610557565b92915050565b600061058c82610511565b9050919050565b600061059e82610581565b9050919050565b6105ae81610593565b82525050565b60006020820190506105c960008301846105a5565b92915050565b6105d8816104a4565b82525050565b60006020820190506105f360008301846105cf565b92915050565b600060408201905061060e6000830185610475565b61061b60208301846105cf565b9392505050565b60008115159050919050565b61063781610622565b811461064257600080fd5b50565b6000815190506106548161062e565b92915050565b6000602082840312156106705761066f61049f565b5b600061067e84828501610645565b91505092915050565b61069081610622565b82525050565b60006060820190506106ab60008301866105cf565b6106b86020830185610475565b6106c56040830184610687565b94935050505056fea2646970667358221220f35b13f7753f02b28e327e68e2fa1ea9858ea5b2d558ec56058d57c05cf778a164736f6c63430008160033",
  "linkReferences": {},
  "deployedLinkReferences": {}
}