{
  "_format": "hh-sol-artifact-1",
  "contractName": "EbookNFT",
  "sourceName": "contracts/EbookNFT.sol",
  "abi": [
    {
      "inputs": [],
      "stateMutability": "nonpayable",
      "type": "constructor"
    },
    {
      "inputs": [
        {
          "internalType": "address",
          "name": "target",
          "type": "address"
        }
      ],
      "name": "AddressEmptyCode",
      "type": "error"
    },
    {
      "inputs": [
        {
          "internalType": "address",
          "name": "implementation",
          "type": "address"
        }
      ],
      "name": "ERC1967InvalidImplementation",
      "type": "error"
    },
    {
      "inputs": [],
      "name": "ERC1967NonPayable",
      "type": "error"
    },
    {
      "inputs": [],
      "name": "ERC721EnumerableForbiddenBatchMint",
      "type": "error"
    },
    {
      "inputs": [
        {
          "internalType": "address",
          "name": "sender",
          "type": "address"
        },
        {
          "internalType": "uint256",
          "name": "tokenId",
          "type": "uint256"
        },
        {
          "internalType": "address",
          "name": "owner",
          "type": "address"
        }
      ],
      "name": "ERC721IncorrectOwner",
      "type": "error"
    },
    {
      "inputs": [
        {
          "internalType": "address",
          "name": "operator",
          "type": "address"
        },
        {
          "internalType": "uint256",
          "name": "tokenId",
          "type": "uint256"
        }
      ],
      "name": "ERC721InsufficientApproval",
      "type": "error"
    },
    {
      "inputs": [
        {
          "internalType": "address",
          "name": "approver",
          "type": "address"
        }
      ],
      "name": "ERC721InvalidApprover",
      "type": "error"
    },
    {
      "inputs": [
        {
          "internalType": "address",
          "name": "operator",
          "type": "address"
        }
      ],
      "name": "ERC721InvalidOperator",
      "type": "error"
    },
    {
      "inputs": [
        {
          "internalType": "address",
          "name": "owner",
          "type": "address"
        }
      ],
      "name": "ERC721InvalidOwner",
      "type": "error"
    },
    {
      "inputs": [
        {
          "internalType": "address",
          "name": "receiver",
          "type": "address"
        }
      ],
      "name": "ERC721InvalidReceiver",
      "type": "error"
    },
    {
      "inputs": [
        {
          "internalType": "address",
          "name": "sender",
          "type": "address"
        }
      ],
      "name": "ERC721InvalidSender",
      "type": "error"
    },
    {
      "inputs": [
        {
          "internalType": "uint256",
          "name": "tokenId",
          "type": "uint256"
        }
      ],
      "name": "ERC721NonexistentToken",
      "type": "error"
    },
    {
      "inputs": [
        {
          "internalType": "address",
          "name": "owner",
          "type": "address"
        },
        {
          "internalType": "uint256",
          "name": "index",
          "type": "uint256"
        }
      ],
      "name": "ERC721OutOfBoundsIndex",
      "type": "error"
    },
    {
      "inputs": [],
      "name": "FailedCall",
      "type": "error"
    },
    {
      "inputs": [],
      "name": "InvalidInitialization",
      "type": "error"
    },
    {
      "inputs": [],
      "name": "NewMinterCannotBeZeroAddress",
      "type": "error"
    },
    {
      "inputs": [],
      "name": "NotInitializing",
      "type": "error"
    },
    {
      "inputs": [],
      "name": "OnlyMinterCanMint",
      "type": "error"
    },
    {
      "inputs": [
        {
          "internalType": "address",
          "name": "owner",
          "type": "address"
        }
      ],
      "name": "OwnableInvalidOwner",
      "type": "error"
    },
    {
      "inputs": [
        {
          "internalType": "address",
          "name": "account",
          "type": "address"
        }
      ],
      "name": "OwnableUnauthorizedAccount",
      "type": "error"
    },
    {
      "inputs": [],
      "name": "URIQueryForNonexistentToken",
      "type": "error"
    },
    {
      "inputs": [],
      "name": "UUPSUnauthorizedCallContext",
      "type": "error"
    },
    {
      "inputs": [
        {
          "internalType": "bytes32",
          "name": "slot",
          "type": "bytes32"
        }
      ],
      "name": "UUPSUnsupportedProxiableUUID",
      "type": "error"
    },
    {
      "anonymous": false,
      "inputs": [
        {
          "indexed": true,
          "internalType": "address",
          "name": "owner",
          "type": "address"
        },
        {
          "indexed": true,
          "internalType": "address",
          "name": "approved",
          "type": "address"
        },
        {
          "indexed": true,
          "internalType": "uint256",
          "name": "tokenId",
          "type": "uint256"
        }
      ],
      "name": "Approval",
      "type": "event"
    },
    {
      "anonymous": false,
      "inputs": [
        {
          "indexed": true,
          "internalType": "address",
          "name": "owner",
          "type": "address"
        },
        {
          "indexed": true,
          "internalType": "address",
          "name": "operator",
          "type": "address"
        },
        {
          "indexed": false,
          "internalType": "bool",
          "name": "approved",
          "type": "bool"
        }
      ],
      "name": "ApprovalForAll",
      "type": "event"
    },
    {
      "anonymous": false,
      "inputs": [
        {
          "indexed": true,
          "internalType": "uint256",
          "name": "tokenId",
          "type": "uint256"
        },
        {
          "indexed": true,
          "internalType": "address",
          "name": "recipient",
          "type": "address"
        },
        {
          "indexed": false,
          "internalType": "string",
          "name": "uri",
          "type": "string"
        }
      ],
      "name": "EbookMinted",
      "type": "event"
    },
    {
      "anonymous": false,
      "inputs": [
        {
          "indexed": false,
          "internalType": "uint64",
          "name": "version",
          "type": "uint64"
        }
      ],
      "name": "Initialized",
      "type": "event"
    },
    {
      "anonymous": false,
      "inputs": [
        {
          "indexed": true,
          "internalType": "address",
          "name": "oldMinter",
          "type": "address"
        },
        {
          "indexed": true,
          "internalType": "address",
          "name": "newMinter",
          "type": "address"
        }
      ],
      "name": "MinterSet",
      "type": "event"
    },
    {
      "anonymous": false,
      "inputs": [
        {
          "indexed": true,
          "internalType": "address",
          "name": "previousOwner",
          "type": "address"
        },
        {
          "indexed": true,
          "internalType": "address",
          "name": "newOwner",
          "type": "address"
        }
      ],
      "name": "OwnershipTransferred",
      "type": "event"
    },
    {
      "anonymous": false,
      "inputs": [
        {
          "indexed": true,
          "internalType": "address",
          "name": "from",
          "type": "address"
        },
        {
          "indexed": true,
          "internalType": "address",
          "name": "to",
          "type": "address"
        },
        {
          "indexed": true,
          "internalType": "uint256",
          "name": "tokenId",
          "type": "uint256"
        }
      ],
      "name": "Transfer",
      "type": "event"
    },
    {
      "anonymous": false,
      "inputs": [
        {
          "indexed": true,
          "internalType": "address",
          "name": "implementation",
          "type": "address"
        }
      ],
      "name": "Upgraded",
      "type": "event"
    },
    {
      "inputs": [],
      "name": "UPGRADE_INTERFACE_VERSION",
      "outputs": [
        {
          "internalType": "string",
          "name": "",
          "type": "string"
        }
      ],
      "stateMutability": "view",
      "type": "function"
    },
    {
      "inputs": [
        {
          "internalType": "address",
          "name": "to",
          "type": "address"
        },
        {
          "internalType": "uint256",
          "name": "tokenId",
          "type": "uint256"
        }
      ],
      "name": "approve",
      "outputs": [],
      "stateMutability": "nonpayable",
      "type": "function"
    },
    {
      "inputs": [
        {
          "internalType": "address",
          "name": "owner",
          "type": "address"
        }
      ],
      "name": "balanceOf",
      "outputs": [
        {
          "internalType": "uint256",
          "name": "",
          "type": "uint256"
        }
      ],
      "stateMutability": "view",
      "type": "function"
    },
    {
      "inputs": [
        {
          "internalType": "uint256",
          "name": "tokenId",
          "type": "uint256"
        }
      ],
      "name": "getApproved",
      "outputs": [
        {
          "internalType": "address",
          "name": "",
          "type": "address"
        }
      ],
      "stateMutability": "view",
      "type": "function"
    },
    {
      "inputs": [
        {
          "internalType": "uint256",
          "name": "_tokenId",
          "type": "uint256"
        }
      ],
      "name": "getEbookIdByTokenId",
      "outputs": [
        {
          "internalType": "uint256",
          "name": "",
          "type": "uint256"
        }
      ],
      "stateMutability": "view",
      "type": "function"
    },
    {
      "inputs": [
        {
          "internalType": "address",
          "name": "_owner",
          "type": "address"
        },
        {
          "internalType": "uint256",
          "name": "_tokenId",
          "type": "uint256"
        }
      ],
      "name": "hasEbookNFT",
      "outputs": [
        {
          "internalType": "bool",
          "name": "",
          "type": "bool"
        }
      ],
      "stateMutability": "view",
      "type": "function"
    },
    {
      "inputs": [
        {
          "internalType": "address",
          "name": "_owner",
          "type": "address"
        },
        {
          "internalType": "uint256",
          "name": "_ebookId",
          "type": "uint256"
        }
      ],
      "name": "hasEbookNFTByEbookId",
      "outputs": [
        {
          "internalType": "bool",
          "name": "",
          "type": "bool"
        }
      ],
      "stateMutability": "view",
      "type": "function"
    },
    {
      "inputs": [
        {
          "internalType": "address",
          "name": "initialOwner",
          "type": "address"
        }
      ],
      "name": "initialize",
      "outputs": [],
      "stateMutability": "nonpayable",
      "type": "function"
    },
    {
      "inputs": [
        {
          "internalType": "address",
          "name": "owner",
          "type": "address"
        },
        {
          "internalType": "address",
          "name": "operator",
          "type": "address"
        }
      ],
      "name": "isApprovedForAll",
      "outputs": [
        {
          "internalType": "bool",
          "name": "",
          "type": "bool"
        }
      ],
      "stateMutability": "view",
      "type": "function"
    },
    {
      "inputs": [
        {
          "internalType": "address",
          "name": "_recipient",
          "type": "address"
        },
        {
          "internalType": "string",
          "name": "_uri",
          "type": "string"
        },
        {
          "internalType": "uint256",
          "name": "_ebookId",
          "type": "uint256"
        }
      ],
      "name": "mintEbook",
      "outputs": [],
      "stateMutability": "nonpayable",
      "type": "function"
    },
    {
      "inputs": [],
      "name": "minter",
      "outputs": [
        {
          "internalType": "address",
          "name": "",
          "type": "address"
        }
      ],
      "stateMutability": "view",
      "type": "function"
    },
    {
      "inputs": [],
      "name": "name",
      "outputs": [
        {
          "internalType": "string",
          "name": "",
          "type": "string"
        }
      ],
      "stateMutability": "view",
      "type": "function"
    },
    {
      "inputs": [],
      "name": "owner",
      "outputs": [
        {
          "internalType": "address",
          "name": "",
          "type": "address"
        }
      ],
      "stateMutability": "view",
      "type": "function"
    },
    {
      "inputs": [
        {
          "internalType": "uint256",
          "name": "tokenId",
          "type": "uint256"
        }
      ],
      "name": "ownerOf",
      "outputs": [
        {
          "internalType": "address",
          "name": "",
          "type": "address"
        }
      ],
      "stateMutability": "view",
      "type": "function"
    },
    {
      "inputs": [],
      "name": "proxiableUUID",
      "outputs": [
        {
          "internalType": "bytes32",
          "name": "",
          "type": "bytes32"
        }
      ],
      "stateMutability": "view",
      "type": "function"
    },
    {
      "inputs": [],
      "name": "renounceOwnership",
      "outputs": [],
      "stateMutability": "nonpayable",
      "type": "function"
    },
    {
      "inputs": [
        {
          "internalType": "address",
          "name": "from",
          "type": "address"
        },
        {
          "internalType": "address",
          "name": "to",
          "type": "address"
        },
        {
          "internalType": "uint256",
          "name": "tokenId",
          "type": "uint256"
        }
      ],
      "name": "safeTransferFrom",
      "outputs": [],
      "stateMutability": "nonpayable",
      "type": "function"
    },
    {
      "inputs": [
        {
          "internalType": "address",
          "name": "from",
          "type": "address"
        },
        {
          "internalType": "address",
          "name": "to",
          "type": "address"
        },
        {
          "internalType": "uint256",
          "name": "tokenId",
          "type": "uint256"
        },
        {
          "internalType": "bytes",
          "name": "data",
          "type": "bytes"
        }
      ],
      "name": "safeTransferFrom",
      "outputs": [],
      "stateMutability": "nonpayable",
      "type": "function"
    },
    {
      "inputs": [
        {
          "internalType": "address",
          "name": "operator",
          "type": "address"
        },
        {
          "internalType": "bool",
          "name": "approved",
          "type": "bool"
        }
      ],
      "name": "setApprovalForAll",
      "outputs": [],
      "stateMutability": "nonpayable",
      "type": "function"
    },
    {
      "inputs": [
        {
          "internalType": "address",
          "name": "_newMinter",
          "type": "address"
        }
      ],
      "name": "setMinter",
      "outputs": [],
      "stateMutability": "nonpayable",
      "type": "function"
    },
    {
      "inputs": [
        {
          "internalType": "bytes4",
          "name": "interfaceId",
          "type": "bytes4"
        }
      ],
      "name": "supportsInterface",
      "outputs": [
        {
          "internalType": "bool",
          "name": "",
          "type": "bool"
        }
      ],
      "stateMutability": "view",
      "type": "function"
    },
    {
      "inputs": [],
      "name": "symbol",
      "outputs": [
        {
          "internalType": "string",
          "name": "",
          "type": "string"
        }
      ],
      "stateMutability": "view",
      "type": "function"
    },
    {
      "inputs": [
        {
          "internalType": "uint256",
          "name": "index",
          "type": "uint256"
        }
      ],
      "name": "tokenByIndex",
      "outputs": [
        {
          "internalType": "uint256",
          "name": "",
          "type": "uint256"
        }
      ],
      "stateMutability": "view",
      "type": "function"
    },
    {
      "inputs": [
        {
          "internalType": "address",
          "name": "owner",
          "type": "address"
        },
        {
          "internalType": "uint256",
          "name": "index",
          "type": "uint256"
        }
      ],
      "name": "tokenOfOwnerByIndex",
      "outputs": [
        {
          "internalType": "uint256",
          "name": "",
          "type": "uint256"
        }
      ],
      "stateMutability": "view",
      "type": "function"
    },
    {
      "inputs": [
        {
          "internalType": "uint256",
          "name": "_tokenId",
          "type": "uint256"
        }
      ],
      "name": "tokenURI",
      "outputs": [
        {
          "internalType": "string",
          "name": "",
          "type": "string"
        }
      ],
      "stateMutability": "view",
      "type": "function"
    },
    {
      "inputs": [],
      "name": "totalSupply",
      "outputs": [
        {
          "internalType": "uint256",
          "name": "",
          "type": "uint256"
        }
      ],
      "stateMutability": "view",
      "type": "function"
    },
    {
      "inputs": [
        {
          "internalType": "address",
          "name": "from",
          "type": "address"
        },
        {
          "internalType": "address",
          "name": "to",
          "type": "address"
        },
        {
          "internalType": "uint256",
          "name": "tokenId",
          "type": "uint256"
        }
      ],
      "name": "transferFrom",
      "outputs": [],
      "stateMutability": "nonpayable",
      "type": "function"
    },
    {
      "inputs": [
        {
          "internalType": "address",
          "name": "newOwner",
          "type": "address"
        }
      ],
      "name": "transferOwnership",
      "outputs": [],
      "stateMutability": "nonpayable",
      "type": "function"
    },
    {
      "inputs": [
        {
          "internalType": "address",
          "name": "newImplementation",
          "type": "address"
        },
        {
          "internalType": "bytes",
          "name": "data",
          "type": "bytes"
        }
      ],
      "name": "upgradeToAndCall",
      "outputs": [],
      "stateMutability": "payable",
      "type": "function"
    }
  ],
  "bytecode": "0x60a06040523073ffffffffffffffffffffffffffffffffffffffff1660809073ffffffffffffffffffffffffffffffffffffffff168152503480156200004457600080fd5b50620000556200005b60201b60201c565b620001ee565b60006200006d6200016560201b60201c565b90508060000160089054906101000a900460ff1615620000b9576040517ff92ee8a900000000000000000000000000000000000000000000000000000000815260040160405180910390fd5b67ffffffffffffffff80168160000160009054906101000a900467ffffffffffffffff1667ffffffffffffffff1614620001625767ffffffffffffffff8160000160006101000a81548167ffffffffffffffff021916908367ffffffffffffffff1602179055507fc7f505b2f371ae2175ee4913f4499e1f2633a7b5936321eed1cdaeb6115181d267ffffffffffffffff604051620001599190620001d1565b60405180910390a15b50565b600080620001786200018160201b60201c565b90508091505090565b60007ff0c57e16840df040f15088dc2f81fe391c3923bec73e23a9662efc9c229c6a0060001b905090565b600067ffffffffffffffff82169050919050565b620001cb81620001ac565b82525050565b6000602082019050620001e86000830184620001c0565b92915050565b608051613d8f6200021860003960008181611764015281816117b901526119740152613d8f6000f3fe6080604052600436106101c25760003560e01c806352d1902d116100f7578063a22cb46511610095578063c87b56dd11610064578063c87b56dd1461066b578063e985e9c5146106a8578063f2fde38b146106e5578063fca3b5aa1461070e576101c2565b8063a22cb465146105c5578063ad3cb1cc146105ee578063b88d4fde14610619578063c4d66de814610642576101c2565b8063715018a6116100d1578063715018a61461051b5780638da5cb5b1461053257806395d89b411461055d5780639853b16114610588576101c2565b806352d1902d146104765780636352211e146104a157806370a08231146104de576101c2565b80631d65a8c211610164578063356d4d501161013e578063356d4d50146103cb57806342842e0e146103f45780634f1ef2861461041d5780634f6ccce714610439576101c2565b80631d65a8c21461032857806323b872dd146103655780632f745c591461038e576101c2565b8063081812fc116101a0578063081812fc1461025a578063095ea7b31461029757806312d52249146102c057806318160ddd146102fd576101c2565b806301ffc9a7146101c757806306fdde0314610204578063075461721461022f575b600080fd5b3480156101d357600080fd5b506101ee60048036038101906101e9919061302b565b610737565b6040516101fb9190613073565b60405180910390f35b34801561021057600080fd5b50610219610749565b604051610226919061311e565b60405180910390f35b34801561023b57600080fd5b506102446107ea565b6040516102519190613181565b60405180910390f35b34801561026657600080fd5b50610281600480360381019061027c91906131d2565b610810565b60405161028e9190613181565b60405180910390f35b3480156102a357600080fd5b506102be60048036038101906102b9919061322b565b61082c565b005b3480156102cc57600080fd5b506102e760048036038101906102e291906131d2565b610842565b6040516102f4919061327a565b60405180910390f35b34801561030957600080fd5b5061031261089e565b60405161031f919061327a565b60405180910390f35b34801561033457600080fd5b5061034f600480360381019061034a919061322b565b6108b9565b60405161035c9190613073565b60405180910390f35b34801561037157600080fd5b5061038c60048036038101906103879190613295565b610921565b005b34801561039a57600080fd5b506103b560048036038101906103b0919061322b565b610a23565b6040516103c2919061327a565b60405180910390f35b3480156103d757600080fd5b506103f260048036038101906103ed919061341d565b610ada565b005b34801561040057600080fd5b5061041b60048036038101906104169190613295565b610c16565b005b6104376004803603810190610432919061352d565b610c36565b005b34801561044557600080fd5b50610460600480360381019061045b91906131d2565b610c55565b60405161046d919061327a565b60405180910390f35b34801561048257600080fd5b5061048b610cd9565b60405161049891906135a2565b60405180910390f35b3480156104ad57600080fd5b506104c860048036038101906104c391906131d2565b610d0c565b6040516104d59190613181565b60405180910390f35b3480156104ea57600080fd5b50610505600480360381019061050091906135bd565b610d1e565b604051610512919061327a565b60405180910390f35b34801561052757600080fd5b50610530610de7565b005b34801561053e57600080fd5b50610547610dfb565b6040516105549190613181565b60405180910390f35b34801561056957600080fd5b50610572610e33565b60405161057f919061311e565b60405180910390f35b34801561059457600080fd5b506105af60048036038101906105aa919061322b565b610ed4565b6040516105bc9190613073565b60405180910390f35b3480156105d157600080fd5b506105ec60048036038101906105e79190613616565b610f2c565b005b3480156105fa57600080fd5b50610603610f42565b604051610610919061311e565b60405180910390f35b34801561062557600080fd5b50610640600480360381019061063b9190613656565b610f7b565b005b34801561064e57600080fd5b50610669600480360381019061066491906135bd565b610fa0565b005b34801561067757600080fd5b50610692600480360381019061068d91906131d2565b6111fc565b60405161069f919061311e565b60405180910390f35b3480156106b457600080fd5b506106cf60048036038101906106ca91906136d9565b6112e0565b6040516106dc9190613073565b60405180910390f35b3480156106f157600080fd5b5061070c600480360381019061070791906135bd565b611382565b005b34801561071a57600080fd5b50610735600480360381019061073091906135bd565b611408565b005b600061074282611536565b9050919050565b606060006107556115b0565b905080600001805461076690613748565b80601f016020809104026020016040519081016040528092919081815260200182805461079290613748565b80156107df5780601f106107b4576101008083540402835291602001916107df565b820191906000526020600020905b8154815290600101906020018083116107c257829003601f168201915b505050505091505090565b600360009054906101000a900473ffffffffffffffffffffffffffffffffffffffff1681565b600061081b826115d8565b5061082582611660565b9050919050565b61083e82826108396116ab565b6116b3565b5050565b600061084d826116c5565b610883576040517fa14c4b5000000000000000000000000000000000000000000000000000000000815260040160405180910390fd5b60026000838152602001908152602001600020549050919050565b6000806108a9611706565b9050806002018054905091505090565b6000806108c584610d1e565b905060005b818110156109145760006108de8683610a23565b905084600260008381526020019081526020016000205403610906576001935050505061091b565b5080806001019150506108ca565b5060009150505b92915050565b600073ffffffffffffffffffffffffffffffffffffffff168273ffffffffffffffffffffffffffffffffffffffff16036109935760006040517f64a0ae9200000000000000000000000000000000000000000000000000000000815260040161098a9190613181565b60405180910390fd5b60006109a783836109a26116ab565b61172e565b90508373ffffffffffffffffffffffffffffffffffffffff168173ffffffffffffffffffffffffffffffffffffffff1614610a1d578382826040517f64283d7b000000000000000000000000000000000000000000000000000000008152600401610a1493929190613779565b60405180910390fd5b50505050565b600080610a2e611706565b9050610a3984610d1e565b8310610a7e5783836040517fa57d13dc000000000000000000000000000000000000000000000000000000008152600401610a759291906137b0565b60405180910390fd5b8060000160008573ffffffffffffffffffffffffffffffffffffffff1673ffffffffffffffffffffffffffffffffffffffff16815260200190815260200160002060008481526020019081526020016000205491505092915050565b600360009054906101000a900473ffffffffffffffffffffffffffffffffffffffff1673ffffffffffffffffffffffffffffffffffffffff163373ffffffffffffffffffffffffffffffffffffffff1614610b61576040517f045241dd00000000000000000000000000000000000000000000000000000000815260040160405180910390fd5b600080549050610b718482611744565b82600160008381526020019081526020016000209081610b919190613985565b508160026000838152602001908152602001600020819055508373ffffffffffffffffffffffffffffffffffffffff16817f2baf96b5291da5a35675518b34b33eccb4fa207474b0c0e33ce2606b6054bf6585604051610bf1919061311e565b60405180910390a3600080815480929190610c0b90613a86565b919050555050505050565b610c3183838360405180602001604052806000815250610f7b565b505050565b610c3e611762565b610c4782611848565b610c518282611853565b5050565b600080610c60611706565b9050610c6a61089e565b8310610cb0576000836040517fa57d13dc000000000000000000000000000000000000000000000000000000008152600401610ca79291906137b0565b60405180910390fd5b806002018381548110610cc657610cc5613ace565b5b9060005260206000200154915050919050565b6000610ce3611972565b7f360894a13ba1a3210667c828492db98dca3e2076cc3735a920a3ca505d382bbc60001b905090565b6000610d17826115d8565b9050919050565b600080610d296115b0565b9050600073ffffffffffffffffffffffffffffffffffffffff168373ffffffffffffffffffffffffffffffffffffffff1603610d9d5760006040517f89c62b64000000000000000000000000000000000000000000000000000000008152600401610d949190613181565b60405180910390fd5b8060030160008473ffffffffffffffffffffffffffffffffffffffff1673ffffffffffffffffffffffffffffffffffffffff16815260200190815260200160002054915050919050565b610def6119f9565b610df96000611a80565b565b600080610e06611b57565b90508060000160009054906101000a900473ffffffffffffffffffffffffffffffffffffffff1691505090565b60606000610e3f6115b0565b9050806001018054610e5090613748565b80601f0160208091040260200160405190810160405280929190818152602001828054610e7c90613748565b8015610ec95780601f10610e9e57610100808354040283529160200191610ec9565b820191906000526020600020905b815481529060010190602001808311610eac57829003601f168201915b505050505091505090565b6000610edf826116c5565b610eec5760009050610f26565b8273ffffffffffffffffffffffffffffffffffffffff16610f0c83610d0c565b73ffffffffffffffffffffffffffffffffffffffff161490505b92915050565b610f3e610f376116ab565b8383611b7f565b5050565b6040518060400160405280600581526020017f352e302e3000000000000000000000000000000000000000000000000000000081525081565b610f86848484610921565b610f9a610f916116ab565b85858585611cfd565b50505050565b6000610faa611eae565b905060008160000160089054906101000a900460ff1615905060008260000160009054906101000a900467ffffffffffffffff1690506000808267ffffffffffffffff16148015610ff85750825b9050600060018367ffffffffffffffff1614801561102d575060003073ffffffffffffffffffffffffffffffffffffffff163b145b90508115801561103b575080155b15611072576040517ff92ee8a900000000000000000000000000000000000000000000000000000000815260040160405180910390fd5b60018560000160006101000a81548167ffffffffffffffff021916908367ffffffffffffffff16021790555083156110c25760018560000160086101000a81548160ff0219169083151502179055505b6111366040518060400160405280600881526020017f45626f6f6b4e46540000000000000000000000000000000000000000000000008152506040518060400160405280600581526020017f45424e4654000000000000000000000000000000000000000000000000000000815250611ec2565b61113f86611ed8565b611147611eec565b61114f611ef6565b600160008190555085600360006101000a81548173ffffffffffffffffffffffffffffffffffffffff021916908373ffffffffffffffffffffffffffffffffffffffff16021790555083156111f45760008560000160086101000a81548160ff0219169083151502179055507fc7f505b2f371ae2175ee4913f4499e1f2633a7b5936321eed1cdaeb6115181d260016040516111eb9190613b4c565b60405180910390a15b505050505050565b6060611207826116c5565b61123d576040517fa14c4b5000000000000000000000000000000000000000000000000000000000815260040160405180910390fd5b60016000838152602001908152602001600020805461125b90613748565b80601f016020809104026020016040519081016040528092919081815260200182805461128790613748565b80156112d45780601f106112a9576101008083540402835291602001916112d4565b820191906000526020600020905b8154815290600101906020018083116112b757829003601f168201915b50505050509050919050565b6000806112eb6115b0565b90508060050160008573ffffffffffffffffffffffffffffffffffffffff1673ffffffffffffffffffffffffffffffffffffffff16815260200190815260200160002060008473ffffffffffffffffffffffffffffffffffffffff1673ffffffffffffffffffffffffffffffffffffffff16815260200190815260200160002060009054906101000a900460ff1691505092915050565b61138a6119f9565b600073ffffffffffffffffffffffffffffffffffffffff168173ffffffffffffffffffffffffffffffffffffffff16036113fc5760006040517f1e4fbdf70000000000000000000000000000000000000000000000000000000081526004016113f39190613181565b60405180910390fd5b61140581611a80565b50565b6114106119f9565b600073ffffffffffffffffffffffffffffffffffffffff168173ffffffffffffffffffffffffffffffffffffffff1603611476576040517ff5de67f500000000000000000000000000000000000000000000000000000000815260040160405180910390fd5b8073ffffffffffffffffffffffffffffffffffffffff16600360009054906101000a900473ffffffffffffffffffffffffffffffffffffffff1673ffffffffffffffffffffffffffffffffffffffff167f02b23d62d8f733974f8cb13eb804b20135521322b70997c991fc01406632389f60405160405180910390a380600360006101000a81548173ffffffffffffffffffffffffffffffffffffffff021916908373ffffffffffffffffffffffffffffffffffffffff16021790555050565b60007f780e9d63000000000000000000000000000000000000000000000000000000007bffffffffffffffffffffffffffffffffffffffffffffffffffffffff1916827bffffffffffffffffffffffffffffffffffffffffffffffffffffffff191614806115a957506115a882611f00565b5b9050919050565b60007f80bb2b638cc20bc4d0a60d66940f3ab4a00c1d7b313497ca82fb0b4ab0079300905090565b6000806115e483611fe2565b9050600073ffffffffffffffffffffffffffffffffffffffff168173ffffffffffffffffffffffffffffffffffffffff160361165757826040517f7e27328900000000000000000000000000000000000000000000000000000000815260040161164e919061327a565b60405180910390fd5b80915050919050565b60008061166b6115b0565b905080600401600084815260200190815260200160002060009054906101000a900473ffffffffffffffffffffffffffffffffffffffff16915050919050565b600033905090565b6116c0838383600161202d565b505050565b60008073ffffffffffffffffffffffffffffffffffffffff166116e783611fe2565b73ffffffffffffffffffffffffffffffffffffffff1614159050919050565b60007f645e039705490088daad89bae25049a34f4a9072d398537b1ab2425f24cbed00905090565b600061173b848484612201565b90509392505050565b61175e82826040518060200160405280600081525061231e565b5050565b7f000000000000000000000000000000000000000000000000000000000000000073ffffffffffffffffffffffffffffffffffffffff163073ffffffffffffffffffffffffffffffffffffffff16148061180f57507f000000000000000000000000000000000000000000000000000000000000000073ffffffffffffffffffffffffffffffffffffffff166117f6612342565b73ffffffffffffffffffffffffffffffffffffffff1614155b15611846576040517fe07c8dba00000000000000000000000000000000000000000000000000000000815260040160405180910390fd5b565b6118506119f9565b50565b8173ffffffffffffffffffffffffffffffffffffffff166352d1902d6040518163ffffffff1660e01b8152600401602060405180830381865afa9250505080156118bb57506040513d601f19601f820116820180604052508101906118b89190613b93565b60015b6118fc57816040517f4c9c8ce30000000000000000000000000000000000000000000000000000000081526004016118f39190613181565b60405180910390fd5b7f360894a13ba1a3210667c828492db98dca3e2076cc3735a920a3ca505d382bbc60001b811461196357806040517faa1d49a400000000000000000000000000000000000000000000000000000000815260040161195a91906135a2565b60405180910390fd5b61196d8383612399565b505050565b7f000000000000000000000000000000000000000000000000000000000000000073ffffffffffffffffffffffffffffffffffffffff163073ffffffffffffffffffffffffffffffffffffffff16146119f7576040517fe07c8dba00000000000000000000000000000000000000000000000000000000815260040160405180910390fd5b565b611a016116ab565b73ffffffffffffffffffffffffffffffffffffffff16611a1f610dfb565b73ffffffffffffffffffffffffffffffffffffffff1614611a7e57611a426116ab565b6040517f118cdaa7000000000000000000000000000000000000000000000000000000008152600401611a759190613181565b60405180910390fd5b565b6000611a8a611b57565b905060008160000160009054906101000a900473ffffffffffffffffffffffffffffffffffffffff169050828260000160006101000a81548173ffffffffffffffffffffffffffffffffffffffff021916908373ffffffffffffffffffffffffffffffffffffffff1602179055508273ffffffffffffffffffffffffffffffffffffffff168173ffffffffffffffffffffffffffffffffffffffff167f8be0079c531659141344cd1fd0a4f28419497f9722a3daafe3b4186f6b6457e060405160405180910390a3505050565b60007f9016d09d72d40fdae2fd8ceac6b6234c7706214fd39c1cd1e609a0528c199300905090565b6000611b896115b0565b9050600073ffffffffffffffffffffffffffffffffffffffff168373ffffffffffffffffffffffffffffffffffffffff1603611bfc57826040517f5b08ba18000000000000000000000000000000000000000000000000000000008152600401611bf39190613181565b60405180910390fd5b818160050160008673ffffffffffffffffffffffffffffffffffffffff1673ffffffffffffffffffffffffffffffffffffffff16815260200190815260200160002060008573ffffffffffffffffffffffffffffffffffffffff1673ffffffffffffffffffffffffffffffffffffffff16815260200190815260200160002060006101000a81548160ff0219169083151502179055508273ffffffffffffffffffffffffffffffffffffffff168473ffffffffffffffffffffffffffffffffffffffff167f17307eab39ab6107e8899845ad3d59bd9653f200f220920489ca2b5937696c3184604051611cef9190613073565b60405180910390a350505050565b60008373ffffffffffffffffffffffffffffffffffffffff163b1115611ea7578273ffffffffffffffffffffffffffffffffffffffff1663150b7a02868685856040518563ffffffff1660e01b8152600401611d5c9493929190613c15565b6020604051808303816000875af1925050508015611d9857506040513d601f19601f82011682018060405250810190611d959190613c76565b60015b611e1c573d8060008114611dc8576040519150601f19603f3d011682016040523d82523d6000602084013e611dcd565b606091505b506000815103611e1457836040517f64a0ae92000000000000000000000000000000000000000000000000000000008152600401611e0b9190613181565b60405180910390fd5b805181602001fd5b63150b7a0260e01b7bffffffffffffffffffffffffffffffffffffffffffffffffffffffff1916817bffffffffffffffffffffffffffffffffffffffffffffffffffffffff191614611ea557836040517f64a0ae92000000000000000000000000000000000000000000000000000000008152600401611e9c9190613181565b60405180910390fd5b505b5050505050565b600080611eb961240c565b90508091505090565b611eca612437565b611ed48282612477565b5050565b611ee0612437565b611ee9816124b4565b50565b611ef4612437565b565b611efe612437565b565b60007f80ac58cd000000000000000000000000000000000000000000000000000000007bffffffffffffffffffffffffffffffffffffffffffffffffffffffff1916827bffffffffffffffffffffffffffffffffffffffffffffffffffffffff19161480611fcb57507f5b5e139f000000000000000000000000000000000000000000000000000000007bffffffffffffffffffffffffffffffffffffffffffffffffffffffff1916827bffffffffffffffffffffffffffffffffffffffffffffffffffffffff1916145b80611fdb5750611fda8261253a565b5b9050919050565b600080611fed6115b0565b905080600201600084815260200190815260200160002060009054906101000a900473ffffffffffffffffffffffffffffffffffffffff16915050919050565b60006120376115b0565b905081806120725750600073ffffffffffffffffffffffffffffffffffffffff168373ffffffffffffffffffffffffffffffffffffffff1614155b156121a6576000612082856115d8565b9050600073ffffffffffffffffffffffffffffffffffffffff168473ffffffffffffffffffffffffffffffffffffffff16141580156120ed57508373ffffffffffffffffffffffffffffffffffffffff168173ffffffffffffffffffffffffffffffffffffffff1614155b801561210057506120fe81856112e0565b155b1561214257836040517fa9fbf51f0000000000000000000000000000000000000000000000000000000081526004016121399190613181565b60405180910390fd5b82156121a457848673ffffffffffffffffffffffffffffffffffffffff168273ffffffffffffffffffffffffffffffffffffffff167f8c5be1e5ebec7d5bd14f71427d1e84f3dd0314c0f7b2291e5b200ac8c7c3b92560405160405180910390a45b505b8481600401600086815260200190815260200160002060006101000a81548173ffffffffffffffffffffffffffffffffffffffff021916908373ffffffffffffffffffffffffffffffffffffffff1602179055505050505050565b60008061220f8585856125a4565b9050600073ffffffffffffffffffffffffffffffffffffffff168173ffffffffffffffffffffffffffffffffffffffff16036122535761224e846127d1565b612292565b8473ffffffffffffffffffffffffffffffffffffffff168173ffffffffffffffffffffffffffffffffffffffff161461229157612290818561282d565b5b5b600073ffffffffffffffffffffffffffffffffffffffff168573ffffffffffffffffffffffffffffffffffffffff16036122d4576122cf8461292d565b612313565b8473ffffffffffffffffffffffffffffffffffffffff168173ffffffffffffffffffffffffffffffffffffffff1614612312576123118585612a19565b5b5b809150509392505050565b6123288383612ab5565b61233d6123336116ab565b6000858585611cfd565b505050565b60006123707f360894a13ba1a3210667c828492db98dca3e2076cc3735a920a3ca505d382bbc60001b612bae565b60000160009054906101000a900473ffffffffffffffffffffffffffffffffffffffff16905090565b6123a282612bb8565b8173ffffffffffffffffffffffffffffffffffffffff167fbc7cd75a20ee27fd9adebab32041f755214dbc6bffa90cc0225b39da2e5c2d3b60405160405180910390a26000815111156123ff576123f98282612c85565b50612408565b612407612d09565b5b5050565b60007ff0c57e16840df040f15088dc2f81fe391c3923bec73e23a9662efc9c229c6a0060001b905090565b61243f612d46565b612475576040517fd7e6bcf800000000000000000000000000000000000000000000000000000000815260040160405180910390fd5b565b61247f612437565b60006124896115b0565b90508281600001908161249c9190613985565b50818160010190816124ae9190613985565b50505050565b6124bc612437565b600073ffffffffffffffffffffffffffffffffffffffff168173ffffffffffffffffffffffffffffffffffffffff160361252e5760006040517f1e4fbdf70000000000000000000000000000000000000000000000000000000081526004016125259190613181565b60405180910390fd5b61253781611a80565b50565b60007f01ffc9a7000000000000000000000000000000000000000000000000000000007bffffffffffffffffffffffffffffffffffffffffffffffffffffffff1916827bffffffffffffffffffffffffffffffffffffffffffffffffffffffff1916149050919050565b6000806125af6115b0565b905060006125bc85611fe2565b9050600073ffffffffffffffffffffffffffffffffffffffff168473ffffffffffffffffffffffffffffffffffffffff16146125fe576125fd818587612d66565b5b600073ffffffffffffffffffffffffffffffffffffffff168173ffffffffffffffffffffffffffffffffffffffff16146126915761264060008660008061202d565b60018260030160008373ffffffffffffffffffffffffffffffffffffffff1673ffffffffffffffffffffffffffffffffffffffff168152602001908152602001600020600082825403925050819055505b600073ffffffffffffffffffffffffffffffffffffffff168673ffffffffffffffffffffffffffffffffffffffff16146127165760018260030160008873ffffffffffffffffffffffffffffffffffffffff1673ffffffffffffffffffffffffffffffffffffffff168152602001908152602001600020600082825401925050819055505b8582600201600087815260200190815260200160002060006101000a81548173ffffffffffffffffffffffffffffffffffffffff021916908373ffffffffffffffffffffffffffffffffffffffff160217905550848673ffffffffffffffffffffffffffffffffffffffff168273ffffffffffffffffffffffffffffffffffffffff167fddf252ad1be2c89b69c2b068fc378daa952ba7f163c4a11628f55a4df523b3ef60405160405180910390a480925050509392505050565b60006127db611706565b9050806002018054905081600301600084815260200190815260200160002081905550806002018290806001815401808255809150506001900390600052602060002001600090919091909150555050565b6000612837611706565b9050600061284484610d1e565b9050600082600101600085815260200190815260200160002054905060008360000160008773ffffffffffffffffffffffffffffffffffffffff1673ffffffffffffffffffffffffffffffffffffffff16815260200190815260200160002090508282146128f657600081600085815260200190815260200160002054905080826000858152602001908152602001600020819055508285600101600083815260200190815260200160002081905550505b8360010160008681526020019081526020016000206000905580600084815260200190815260200160002060009055505050505050565b6000612937611706565b905060006001826002018054905061294f9190613ca3565b90506000826003016000858152602001908152602001600020549050600083600201838154811061298357612982613ace565b5b90600052602060002001549050808460020183815481106129a7576129a6613ace565b5b9060005260206000200181905550818460030160008381526020019081526020016000208190555083600301600086815260200190815260200160002060009055836002018054806129fc576129fb613cd7565b5b600190038181906000526020600020016000905590555050505050565b6000612a23611706565b905060006001612a3285610d1e565b612a3c9190613ca3565b9050828260000160008673ffffffffffffffffffffffffffffffffffffffff1673ffffffffffffffffffffffffffffffffffffffff168152602001908152602001600020600083815260200190815260200160002081905550808260010160008581526020019081526020016000208190555050505050565b600073ffffffffffffffffffffffffffffffffffffffff168273ffffffffffffffffffffffffffffffffffffffff1603612b275760006040517f64a0ae92000000000000000000000000000000000000000000000000000000008152600401612b1e9190613181565b60405180910390fd5b6000612b358383600061172e565b9050600073ffffffffffffffffffffffffffffffffffffffff168173ffffffffffffffffffffffffffffffffffffffff1614612ba95760006040517f73c6ac6e000000000000000000000000000000000000000000000000000000008152600401612ba09190613181565b60405180910390fd5b505050565b6000819050919050565b60008173ffffffffffffffffffffffffffffffffffffffff163b03612c1457806040517f4c9c8ce3000000000000000000000000000000000000000000000000000000008152600401612c0b9190613181565b60405180910390fd5b80612c417f360894a13ba1a3210667c828492db98dca3e2076cc3735a920a3ca505d382bbc60001b612bae565b60000160006101000a81548173ffffffffffffffffffffffffffffffffffffffff021916908373ffffffffffffffffffffffffffffffffffffffff16021790555050565b60606000808473ffffffffffffffffffffffffffffffffffffffff1684604051612caf9190613d42565b600060405180830381855af49150503d8060008114612cea576040519150601f19603f3d011682016040523d82523d6000602084013e612cef565b606091505b5091509150612cff858383612e2a565b9250505092915050565b6000341115612d44576040517fb398979f00000000000000000000000000000000000000000000000000000000815260040160405180910390fd5b565b6000612d50611eae565b60000160089054906101000a900460ff16905090565b612d71838383612eb9565b612e2557600073ffffffffffffffffffffffffffffffffffffffff168373ffffffffffffffffffffffffffffffffffffffff1603612de657806040517f7e273289000000000000000000000000000000000000000000000000000000008152600401612ddd919061327a565b60405180910390fd5b81816040517f177e802f000000000000000000000000000000000000000000000000000000008152600401612e1c9291906137b0565b60405180910390fd5b505050565b606082612e3f57612e3a82612f7a565b612eb1565b60008251148015612e67575060008473ffffffffffffffffffffffffffffffffffffffff163b145b15612ea957836040517f9996b315000000000000000000000000000000000000000000000000000000008152600401612ea09190613181565b60405180910390fd5b819050612eb2565b5b9392505050565b60008073ffffffffffffffffffffffffffffffffffffffff168373ffffffffffffffffffffffffffffffffffffffff1614158015612f7157508273ffffffffffffffffffffffffffffffffffffffff168473ffffffffffffffffffffffffffffffffffffffff161480612f325750612f3184846112e0565b5b80612f7057508273ffffffffffffffffffffffffffffffffffffffff16612f5883611660565b73ffffffffffffffffffffffffffffffffffffffff16145b5b90509392505050565b600081511115612f8d5780518082602001fd5b6040517fd6bda27500000000000000000000000000000000000000000000000000000000815260040160405180910390fd5b6000604051905090565b600080fd5b600080fd5b60007fffffffff0000000000000000000000000000000000000000000000000000000082169050919050565b61300881612fd3565b811461301357600080fd5b50565b60008135905061302581612fff565b92915050565b60006020828403121561304157613040612fc9565b5b600061304f84828501613016565b91505092915050565b60008115159050919050565b61306d81613058565b82525050565b60006020820190506130886000830184613064565b92915050565b600081519050919050565b600082825260208201905092915050565b60005b838110156130c85780820151818401526020810190506130ad565b60008484015250505050565b6000601f19601f8301169050919050565b60006130f08261308e565b6130fa8185613099565b935061310a8185602086016130aa565b613113816130d4565b840191505092915050565b6000602082019050818103600083015261313881846130e5565b905092915050565b600073ffffffffffffffffffffffffffffffffffffffff82169050919050565b600061316b82613140565b9050919050565b61317b81613160565b82525050565b60006020820190506131966000830184613172565b92915050565b6000819050919050565b6131af8161319c565b81146131ba57600080fd5b50565b6000813590506131cc816131a6565b92915050565b6000602082840312156131e8576131e7612fc9565b5b60006131f6848285016131bd565b91505092915050565b61320881613160565b811461321357600080fd5b50565b600081359050613225816131ff565b92915050565b6000806040838503121561324257613241612fc9565b5b600061325085828601613216565b9250506020613261858286016131bd565b9150509250929050565b6132748161319c565b82525050565b600060208201905061328f600083018461326b565b92915050565b6000806000606084860312156132ae576132ad612fc9565b5b60006132bc86828701613216565b93505060206132cd86828701613216565b92505060406132de868287016131bd565b9150509250925092565b600080fd5b600080fd5b7f4e487b7100000000000000000000000000000000000000000000000000000000600052604160045260246000fd5b61332a826130d4565b810181811067ffffffffffffffff82111715613349576133486132f2565b5b80604052505050565b600061335c612fbf565b90506133688282613321565b919050565b600067ffffffffffffffff821115613388576133876132f2565b5b613391826130d4565b9050602081019050919050565b82818337600083830152505050565b60006133c06133bb8461336d565b613352565b9050828152602081018484840111156133dc576133db6132ed565b5b6133e784828561339e565b509392505050565b600082601f830112613404576134036132e8565b5b81356134148482602086016133ad565b91505092915050565b60008060006060848603121561343657613435612fc9565b5b600061344486828701613216565b935050602084013567ffffffffffffffff81111561346557613464612fce565b5b613471868287016133ef565b9250506040613482868287016131bd565b9150509250925092565b600067ffffffffffffffff8211156134a7576134a66132f2565b5b6134b0826130d4565b9050602081019050919050565b60006134d06134cb8461348c565b613352565b9050828152602081018484840111156134ec576134eb6132ed565b5b6134f784828561339e565b509392505050565b600082601f830112613514576135136132e8565b5b81356135248482602086016134bd565b91505092915050565b6000806040838503121561354457613543612fc9565b5b600061355285828601613216565b925050602083013567ffffffffffffffff81111561357357613572612fce565b5b61357f858286016134ff565b9150509250929050565b6000819050919050565b61359c81613589565b82525050565b60006020820190506135b76000830184613593565b92915050565b6000602082840312156135d3576135d2612fc9565b5b60006135e184828501613216565b91505092915050565b6135f381613058565b81146135fe57600080fd5b50565b600081359050613610816135ea565b92915050565b6000806040838503121561362d5761362c612fc9565b5b600061363b85828601613216565b925050602061364c85828601613601565b9150509250929050565b600080600080608085870312156136705761366f612fc9565b5b600061367e87828801613216565b945050602061368f87828801613216565b93505060406136a0878288016131bd565b925050606085013567ffffffffffffffff8111156136c1576136c0612fce565b5b6136cd878288016134ff565b91505092959194509250565b600080604083850312156136f0576136ef612fc9565b5b60006136fe85828601613216565b925050602061370f85828601613216565b9150509250929050565b7f4e487b7100000000000000000000000000000000000000000000000000000000600052602260045260246000fd5b6000600282049050600182168061376057607f821691505b60208210810361377357613772613719565b5b50919050565b600060608201905061378e6000830186613172565b61379b602083018561326b565b6137a86040830184613172565b949350505050565b60006040820190506137c56000830185613172565b6137d2602083018461326b565b9392505050565b60008190508160005260206000209050919050565b60006020601f8301049050919050565b600082821b905092915050565b60006008830261383b7fffffffffffffffffffffffffffffffffffffffffffffffffffffffffffffffff826137fe565b61384586836137fe565b95508019841693508086168417925050509392505050565b6000819050919050565b600061388261387d6138788461319c565b61385d565b61319c565b9050919050565b6000819050919050565b61389c83613867565b6138b06138a882613889565b84845461380b565b825550505050565b600090565b6138c56138b8565b6138d0818484613893565b505050565b5b818110156138f4576138e96000826138bd565b6001810190506138d6565b5050565b601f8211156139395761390a816137d9565b613913846137ee565b81016020851015613922578190505b61393661392e856137ee565b8301826138d5565b50505b505050565b600082821c905092915050565b600061395c6000198460080261393e565b1980831691505092915050565b6000613975838361394b565b9150826002028217905092915050565b61398e8261308e565b67ffffffffffffffff8111156139a7576139a66132f2565b5b6139b18254613748565b6139bc8282856138f8565b600060209050601f8311600181146139ef57600084156139dd578287015190505b6139e78582613969565b865550613a4f565b601f1984166139fd866137d9565b60005b82811015613a2557848901518255600182019150602085019450602081019050613a00565b86831015613a425784890151613a3e601f89168261394b565b8355505b6001600288020188555050505b505050505050565b7f4e487b7100000000000000000000000000000000000000000000000000000000600052601160045260246000fd5b6000613a918261319c565b91507fffffffffffffffffffffffffffffffffffffffffffffffffffffffffffffffff8203613ac357613ac2613a57565b5b600182019050919050565b7f4e487b7100000000000000000000000000000000000000000000000000000000600052603260045260246000fd5b6000819050919050565b600067ffffffffffffffff82169050919050565b6000613b36613b31613b2c84613afd565b61385d565b613b07565b9050919050565b613b4681613b1b565b82525050565b6000602082019050613b616000830184613b3d565b92915050565b613b7081613589565b8114613b7b57600080fd5b50565b600081519050613b8d81613b67565b92915050565b600060208284031215613ba957613ba8612fc9565b5b6000613bb784828501613b7e565b91505092915050565b600081519050919050565b600082825260208201905092915050565b6000613be782613bc0565b613bf18185613bcb565b9350613c018185602086016130aa565b613c0a816130d4565b840191505092915050565b6000608082019050613c2a6000830187613172565b613c376020830186613172565b613c44604083018561326b565b8181036060830152613c568184613bdc565b905095945050505050565b600081519050613c7081612fff565b92915050565b600060208284031215613c8c57613c8b612fc9565b5b6000613c9a84828501613c61565b91505092915050565b6000613cae8261319c565b9150613cb98361319c565b9250828203905081811115613cd157613cd0613a57565b5b92915050565b7f4e487b7100000000000000000000000000000000000000000000000000000000600052603160045260246000fd5b600081905092915050565b6000613d1c82613bc0565b613d268185613d06565b9350613d368185602086016130aa565b80840191505092915050565b6000613d4e8284613d11565b91508190509291505056fea2646970667358221220d3b76440fd69c09758f1857f2a48b6c4167bfd72334d6425ddee345d2ca48b2064736f6c63430008160033",
  "linkReferences": {},
  "deployedLinkReferences": {}
}