{
  "_format": "hh-sol-artifact-1",
  "contractName": "EbookSalesDistributor",
  "sourceName": "contracts/EbookSalesDistributor.sol",
  "abi": [
    {
      "inputs": [
        {
          "internalType": "address",
          "name": "initialOwner",
          "type": "address"
        },
        {
          "internalType": "address",
          "name": "_salesTokenAddress",
          "type": "address"
        },
        {
          "internalType": "address",
          "name": "_uploadFeeTokenAddress",
          "type": "address"
        },
        {
          "internalType": "address",
          "name": "_ebookNFTContractAddress",
          "type": "address"
        },
        {
          "internalType": "address",
          "name": "_revenueDistributionContractAddress",
          "type": "address"
        },
        {
          "internalType": "uint256",
          "name": "_uploadFeeAmount",
          "type": "uint256"
        }
      ],
      "stateMutability": "nonpayable",
      "type": "constructor"
    },
    {
      "inputs": [],
      "name": "EbookNFTContractNotSet",
      "type": "error"
    },
    {
      "inputs": [],
      "name": "EbookNotAvailableForPurchase",
      "type": "error"
    },
    {
      "inputs": [],
      "name": "EbookPriceMustBeGreaterThanZero",
      "type": "error"
    },
    {
      "inputs": [],
      "name": "EmptyEbookURI",
      "type": "error"
    },
    {
      "inputs": [],
      "name": "InsufficientUploadFee",
      "type": "error"
    },
    {
      "inputs": [],
      "name": "InvalidExclusiveReferrer",
      "type": "error"
    },
    {
      "inputs": [],
      "name": "NonExclusiveReferrerMustOwnNFT",
      "type": "error"
    },
    {
      "inputs": [],
      "name": "NotEbookNFTOwner",
      "type": "error"
    },
    {
      "inputs": [
        {
          "internalType": "address",
          "name": "owner",
          "type": "address"
        }
      ],
      "name": "OwnableInvalidOwner",
      "type": "error"
    },
    {
      "inputs": [
        {
          "internalType": "address",
          "name": "account",
          "type": "address"
        }
      ],
      "name": "OwnableUnauthorizedAccount",
      "type": "error"
    },
    {
      "inputs": [],
      "name": "PlatformAddressNotSet",
      "type": "error"
    },
    {
      "inputs": [],
      "name": "RevenueDistributionContractNotSet",
      "type": "error"
    },
    {
      "inputs": [
        {
          "internalType": "address",
          "name": "token",
          "type": "address"
        }
      ],
      "name": "SafeERC20FailedOperation",
      "type": "error"
    },
    {
      "inputs": [],
      "name": "TotalShareBPSExceeds100Percent",
      "type": "error"
    },
    {
      "inputs": [],
      "name": "ZeroEbookNFTContractAddress",
      "type": "error"
    },
    {
      "inputs": [],
      "name": "ZeroRevenueDistributionContractAddress",
      "type": "error"
    },
    {
      "inputs": [],
      "name": "ZeroSalesTokenAddress",
      "type": "error"
    },
    {
      "inputs": [],
      "name": "ZeroUploadFeeAmount",
      "type": "error"
    },
    {
      "inputs": [],
      "name": "ZeroUploadFeeTokenAddress",
      "type": "error"
    },
    {
      "anonymous": false,
      "inputs": [
        {
          "indexed": true,
          "internalType": "uint256",
          "name": "ebookId",
          "type": "uint256"
        },
        {
          "indexed": true,
          "internalType": "address",
          "name": "definer",
          "type": "address"
        },
        {
          "indexed": false,
          "internalType": "string",
          "name": "uri",
          "type": "string"
        },
        {
          "indexed": false,
          "internalType": "uint256",
          "name": "price",
          "type": "uint256"
        },
        {
          "indexed": false,
          "internalType": "uint256",
          "name": "authorBPS",
          "type": "uint256"
        },
        {
          "indexed": false,
          "internalType": "uint256",
          "name": "referrerBPS",
          "type": "uint256"
        },
        {
          "indexed": false,
          "internalType": "uint256",
          "name": "uploadFee",
          "type": "uint256"
        }
      ],
      "name": "EbookDefined",
      "type": "event"
    },
    {
      "anonymous": false,
      "inputs": [
        {
          "indexed": true,
          "internalType": "address",
          "name": "newEbookNFTContract",
          "type": "address"
        }
      ],
      "name": "EbookNFTContractSet",
      "type": "event"
    },
    {
      "anonymous": false,
      "inputs": [
        {
          "indexed": true,
          "internalType": "uint256",
          "name": "ebookId",
          "type": "uint256"
        },
        {
          "indexed": true,
          "internalType": "address",
          "name": "buyer",
          "type": "address"
        },
        {
          "indexed": true,
          "internalType": "address",
          "name": "referrer",
          "type": "address"
        },
        {
          "indexed": false,
          "internalType": "uint256",
          "name": "price",
          "type": "uint256"
        }
      ],
      "name": "EbookPurchased",
      "type": "event"
    },
    {
      "anonymous": false,
      "inputs": [
        {
          "indexed": true,
          "internalType": "uint256",
          "name": "ebookId",
          "type": "uint256"
        },
        {
          "indexed": true,
          "internalType": "address",
          "name": "referrer",
          "type": "address"
        },
        {
          "indexed": false,
          "internalType": "bool",
          "name": "isExclusive",
          "type": "bool"
        }
      ],
      "name": "ExclusiveReferralLinkSet",
      "type": "event"
    },
    {
      "anonymous": false,
      "inputs": [
        {
          "indexed": true,
          "internalType": "address",
          "name": "previousOwner",
          "type": "address"
        },
        {
          "indexed": true,
          "internalType": "address",
          "name": "newOwner",
          "type": "address"
        }
      ],
      "name": "OwnershipTransferred",
      "type": "event"
    },
    {
      "anonymous": false,
      "inputs": [
        {
          "indexed": true,
          "internalType": "address",
          "name": "newRevenueDistributionContract",
          "type": "address"
        }
      ],
      "name": "RevenueDistributionContractSet",
      "type": "event"
    },
    {
      "anonymous": false,
      "inputs": [
        {
          "indexed": true,
          "internalType": "address",
          "name": "from",
          "type": "address"
        },
        {
          "indexed": true,
          "internalType": "address",
          "name": "tokenAddress",
          "type": "address"
        },
        {
          "indexed": false,
          "internalType": "uint256",
          "name": "amount",
          "type": "uint256"
        }
      ],
      "name": "UploadFeeReceived",
      "type": "event"
    },
    {
      "inputs": [],
      "name": "UPLOAD_FEE",
      "outputs": [
        {
          "internalType": "uint256",
          "name": "",
          "type": "uint256"
        }
      ],
      "stateMutability": "view",
      "type": "function"
    },
    {
      "inputs": [
        {
          "internalType": "string",
          "name": "_ebookURI",
          "type": "string"
        },
        {
          "internalType": "uint256",
          "name": "_price",
          "type": "uint256"
        },
        {
          "internalType": "uint256",
          "name": "_authorShareBPS",
          "type": "uint256"
        },
        {
          "internalType": "uint256",
          "name": "_referrerShareBPS",
          "type": "uint256"
        },
        {
          "internalType": "uint256",
          "name": "_uploadFee",
          "type": "uint256"
        }
      ],
      "name": "defineEbookForSale",
      "outputs": [
        {
          "internalType": "uint256",
          "name": "newEbookId",
          "type": "uint256"
        }
      ],
      "stateMutability": "nonpayable",
      "type": "function"
    },
    {
      "inputs": [
        {
          "internalType": "uint256",
          "name": "",
          "type": "uint256"
        }
      ],
      "name": "definedEbookTokenURIs",
      "outputs": [
        {
          "internalType": "string",
          "name": "",
          "type": "string"
        }
      ],
      "stateMutability": "view",
      "type": "function"
    },
    {
      "inputs": [
        {
          "internalType": "uint256",
          "name": "",
          "type": "uint256"
        }
      ],
      "name": "ebookAuthorShareBPS",
      "outputs": [
        {
          "internalType": "uint256",
          "name": "",
          "type": "uint256"
        }
      ],
      "stateMutability": "view",
      "type": "function"
    },
    {
      "inputs": [
        {
          "internalType": "uint256",
          "name": "",
          "type": "uint256"
        }
      ],
      "name": "ebookAuthors",
      "outputs": [
        {
          "internalType": "address",
          "name": "",
          "type": "address"
        }
      ],
      "stateMutability": "view",
      "type": "function"
    },
    {
      "inputs": [
        {
          "internalType": "uint256",
          "name": "",
          "type": "uint256"
        }
      ],
      "name": "ebookCreators",
      "outputs": [
        {
          "internalType": "address",
          "name": "",
          "type": "address"
        }
      ],
      "stateMutability": "view",
      "type": "function"
    },
    {
      "inputs": [],
      "name": "ebookNFTContract",
      "outputs": [
        {
          "internalType": "contract IEbookNFT",
          "name": "",
          "type": "address"
        }
      ],
      "stateMutability": "view",
      "type": "function"
    },
    {
      "inputs": [
        {
          "internalType": "uint256",
          "name": "",
          "type": "uint256"
        }
      ],
      "name": "ebookPrices",
      "outputs": [
        {
          "internalType": "uint256",
          "name": "",
          "type": "uint256"
        }
      ],
      "stateMutability": "view",
      "type": "function"
    },
    {
      "inputs": [
        {
          "internalType": "uint256",
          "name": "",
          "type": "uint256"
        }
      ],
      "name": "ebookReferrerShareBPS",
      "outputs": [
        {
          "internalType": "uint256",
          "name": "",
          "type": "uint256"
        }
      ],
      "stateMutability": "view",
      "type": "function"
    },
    {
      "inputs": [
        {
          "internalType": "uint256",
          "name": "",
          "type": "uint256"
        }
      ],
      "name": "exclusiveReferrers",
      "outputs": [
        {
          "internalType": "address",
          "name": "",
          "type": "address"
        }
      ],
      "stateMutability": "view",
      "type": "function"
    },
    {
      "inputs": [],
      "name": "getAllAvailableEbooks",
      "outputs": [
        {
          "internalType": "uint256[]",
          "name": "ebookIds",
          "type": "uint256[]"
        },
        {
          "internalType": "string[]",
          "name": "uris",
          "type": "string[]"
        },
        {
          "internalType": "uint256[]",
          "name": "prices",
          "type": "uint256[]"
        },
        {
          "internalType": "address[]",
          "name": "creators",
          "type": "address[]"
        }
      ],
      "stateMutability": "view",
      "type": "function"
    },
    {
      "inputs": [
        {
          "internalType": "uint256",
          "name": "_ebookId",
          "type": "uint256"
        }
      ],
      "name": "getEbookAuthor",
      "outputs": [
        {
          "internalType": "address",
          "name": "",
          "type": "address"
        }
      ],
      "stateMutability": "view",
      "type": "function"
    },
    {
      "inputs": [
        {
          "internalType": "uint256",
          "name": "_ebookId",
          "type": "uint256"
        }
      ],
      "name": "getEbookAuthorShareBPS",
      "outputs": [
        {
          "internalType": "uint256",
          "name": "",
          "type": "uint256"
        }
      ],
      "stateMutability": "view",
      "type": "function"
    },
    {
      "inputs": [
        {
          "internalType": "uint256",
          "name": "_ebookId",
          "type": "uint256"
        }
      ],
      "name": "getEbookCreator",
      "outputs": [
        {
          "internalType": "address",
          "name": "",
          "type": "address"
        }
      ],
      "stateMutability": "view",
      "type": "function"
    },
    {
      "inputs": [
        {
          "internalType": "uint256",
          "name": "_ebookId",
          "type": "uint256"
        }
      ],
      "name": "getEbookPrice",
      "outputs": [
        {
          "internalType": "uint256",
          "name": "",
          "type": "uint256"
        }
      ],
      "stateMutability": "view",
      "type": "function"
    },
    {
      "inputs": [
        {
          "internalType": "uint256",
          "name": "_ebookId",
          "type": "uint256"
        }
      ],
      "name": "getEbookReferrerShareBPS",
      "outputs": [
        {
          "internalType": "uint256",
          "name": "",
          "type": "uint256"
        }
      ],
      "stateMutability": "view",
      "type": "function"
    },
    {
      "inputs": [
        {
          "internalType": "uint256",
          "name": "_ebookId",
          "type": "uint256"
        }
      ],
      "name": "getEbookURI",
      "outputs": [
        {
          "internalType": "string",
          "name": "",
          "type": "string"
        }
      ],
      "stateMutability": "view",
      "type": "function"
    },
    {
      "inputs": [],
      "name": "getNextEbookId",
      "outputs": [
        {
          "internalType": "uint256",
          "name": "",
          "type": "uint256"
        }
      ],
      "stateMutability": "view",
      "type": "function"
    },
    {
      "inputs": [
        {
          "internalType": "uint256",
          "name": "_ebookId",
          "type": "uint256"
        }
      ],
      "name": "isEbookAvailableForPurchase",
      "outputs": [
        {
          "internalType": "bool",
          "name": "",
          "type": "bool"
        }
      ],
      "stateMutability": "view",
      "type": "function"
    },
    {
      "inputs": [],
      "name": "owner",
      "outputs": [
        {
          "internalType": "address",
          "name": "",
          "type": "address"
        }
      ],
      "stateMutability": "view",
      "type": "function"
    },
    {
      "inputs": [
        {
          "internalType": "uint256",
          "name": "_ebookId",
          "type": "uint256"
        },
        {
          "internalType": "address",
          "name": "_referrer",
          "type": "address"
        },
        {
          "internalType": "bool",
          "name": "_isExclusivePurchase",
          "type": "bool"
        }
      ],
      "name": "purchaseEbook",
      "outputs": [],
      "stateMutability": "nonpayable",
      "type": "function"
    },
    {
      "inputs": [],
      "name": "renounceOwnership",
      "outputs": [],
      "stateMutability": "nonpayable",
      "type": "function"
    },
    {
      "inputs": [],
      "name": "revenueDistributionContract",
      "outputs": [
        {
          "internalType": "contract IEbookRevenueDistribution",
          "name": "",
          "type": "address"
        }
      ],
      "stateMutability": "view",
      "type": "function"
    },
    {
      "inputs": [],
      "name": "salesToken",
      "outputs": [
        {
          "internalType": "contract IERC20",
          "name": "",
          "type": "address"
        }
      ],
      "stateMutability": "view",
      "type": "function"
    },
    {
      "inputs": [
        {
          "internalType": "address",
          "name": "_ebookNFTContract",
          "type": "address"
        }
      ],
      "name": "setEbookNFTContract",
      "outputs": [],
      "stateMutability": "nonpayable",
      "type": "function"
    },
    {
      "inputs": [
        {
          "internalType": "uint256",
          "name": "_ebookId",
          "type": "uint256"
        }
      ],
      "name": "setExclusiveReferralLink",
      "outputs": [],
      "stateMutability": "nonpayable",
      "type": "function"
    },
    {
      "inputs": [
        {
          "internalType": "address",
          "name": "_revenueDistributionContract",
          "type": "address"
        }
      ],
      "name": "setRevenueDistributionContract",
      "outputs": [],
      "stateMutability": "nonpayable",
      "type": "function"
    },
    {
      "inputs": [
        {
          "internalType": "address",
          "name": "newOwner",
          "type": "address"
        }
      ],
      "name": "transferOwnership",
      "outputs": [],
      "stateMutability": "nonpayable",
      "type": "function"
    },
    {
      "inputs": [],
      "name": "uploadFeeToken",
      "outputs": [
        {
          "internalType": "contract IERC20",
          "name": "",
          "type": "address"
        }
      ],
      "stateMutability": "view",
      "type": "function"
    },
    {
      "inputs": [
        {
          "internalType": "address",
          "name": "_tokenAddress",
          "type": "address"
        },
        {
          "internalType": "address",
          "name": "_to",
          "type": "address"
        },
        {
          "internalType": "uint256",
          "name": "_amount",
          "type": "uint256"
        }
      ],
      "name": "withdrawAnyERC20Token",
      "outputs": [],
      "stateMutability": "nonpayable",
      "type": "function"
    },
    {
      "inputs": [
        {
          "internalType": "address payable",
          "name": "_to",
          "type": "address"
        },
        {
          "internalType": "uint256",
          "name": "_amount",
          "type": "uint256"
        }
      ],
      "name": "withdrawNativeToken",
      "outputs": [],
      "stateMutability": "nonpayable",
      "type": "function"
    },
    {
      "stateMutability": "payable",
      "type": "receive"
    }
  ],
  "bytecode": "0x60e06040523480156200001157600080fd5b5060405162003a9838038062003a98833981810160405281019062000037919062000505565b85600073ffffffffffffffffffffffffffffffffffffffff168173ffffffffffffffffffffffffffffffffffffffff1603620000ad5760006040517f1e4fbdf7000000000000000000000000000000000000000000000000000000008152600401620000a49190620005b2565b60405180910390fd5b620000be816200039c60201b60201c565b50600073ffffffffffffffffffffffffffffffffffffffff168573ffffffffffffffffffffffffffffffffffffffff160362000126576040517f05f0ae5400000000000000000000000000000000000000000000000000000000815260040160405180910390fd5b600073ffffffffffffffffffffffffffffffffffffffff168473ffffffffffffffffffffffffffffffffffffffff16036200018d576040517fbbe902c300000000000000000000000000000000000000000000000000000000815260040160405180910390fd5b600073ffffffffffffffffffffffffffffffffffffffff168373ffffffffffffffffffffffffffffffffffffffff1603620001f4576040517fff8611a300000000000000000000000000000000000000000000000000000000815260040160405180910390fd5b600073ffffffffffffffffffffffffffffffffffffffff168273ffffffffffffffffffffffffffffffffffffffff16036200025b576040517ffd30bf9800000000000000000000000000000000000000000000000000000000815260040160405180910390fd5b6000810362000296576040517ff78c54c600000000000000000000000000000000000000000000000000000000815260040160405180910390fd5b8473ffffffffffffffffffffffffffffffffffffffff1660808173ffffffffffffffffffffffffffffffffffffffff16815250508373ffffffffffffffffffffffffffffffffffffffff1660a08173ffffffffffffffffffffffffffffffffffffffff168152505082600160006101000a81548173ffffffffffffffffffffffffffffffffffffffff021916908373ffffffffffffffffffffffffffffffffffffffff16021790555081600260006101000a81548173ffffffffffffffffffffffffffffffffffffffff021916908373ffffffffffffffffffffffffffffffffffffffff1602179055508060c081815250506001600981905550505050505050620005cf565b60008060009054906101000a900473ffffffffffffffffffffffffffffffffffffffff169050816000806101000a81548173ffffffffffffffffffffffffffffffffffffffff021916908373ffffffffffffffffffffffffffffffffffffffff1602179055508173ffffffffffffffffffffffffffffffffffffffff168173ffffffffffffffffffffffffffffffffffffffff167f8be0079c531659141344cd1fd0a4f28419497f9722a3daafe3b4186f6b6457e060405160405180910390a35050565b600080fd5b600073ffffffffffffffffffffffffffffffffffffffff82169050919050565b6000620004928262000465565b9050919050565b620004a48162000485565b8114620004b057600080fd5b50565b600081519050620004c48162000499565b92915050565b6000819050919050565b620004df81620004ca565b8114620004eb57600080fd5b50565b600081519050620004ff81620004d4565b92915050565b60008060008060008060c0878903121562000525576200052462000460565b5b60006200053589828a01620004b3565b96505060206200054889828a01620004b3565b95505060406200055b89828a01620004b3565b94505060606200056e89828a01620004b3565b93505060806200058189828a01620004b3565b92505060a06200059489828a01620004ee565b9150509295509295509295565b620005ac8162000485565b82525050565b6000602082019050620005c96000830184620005a1565b92915050565b60805160a05160c0516134766200062260003960008181610965015261164a015260008181610ac001528181610b070152610d720152600081816112e901528181611a5d0152611acb01526134766000f3fe6080604052600436106101dc5760003560e01c80637397df5611610102578063bfd5a9d611610095578063e323272f11610064578063e323272f14610766578063f2fde38b1461078f578063f5c3ed63146107b8578063fc7b06af146107e3576101e3565b8063bfd5a9d614610698578063c13fba7a146106c3578063c28a1059146106ec578063c8c35dbc14610729576101e3565b80638da5cb5b116100d15780638da5cb5b146105b6578063a537e20d146105e1578063bc00dd6f1461061e578063be11b7851461065b576101e3565b80637397df56146104d657806382ccfc13146105135780638947d3571461053c57806389e68c3e14610579576101e3565b80633c299b7f1161017a57806365ca56fb1161014957806365ca56fb14610429578063715018a61461046657806372b904d31461047d57806372da776e146104ab576101e3565b80633c299b7f146103495780634cd5c8ee14610386578063536c6bfa146103c35780636396d81c146103ec576101e3565b80632225fa3a116101b65780632225fa3a1461029f5780632313bf90146102ca57806332e735e0146102f55780633c10cb7b14610320576101e3565b80630afdc13e146101e85780630cb63563146102255780632101fe5d14610262576101e3565b366101e357005b600080fd5b3480156101f457600080fd5b5061020f600480360381019061020a9190612654565b61080c565b60405161021c91906126fa565b60405180910390f35b34801561023157600080fd5b5061024c60048036038101906102479190612715565b610d16565b60405161025991906126fa565b60405180910390f35b34801561026e57600080fd5b5061028960048036038101906102849190612715565b610d33565b6040516102969190612783565b60405180910390f35b3480156102ab57600080fd5b506102b4610d66565b6040516102c191906126fa565b60405180910390f35b3480156102d657600080fd5b506102df610d70565b6040516102ec91906127fd565b60405180910390f35b34801561030157600080fd5b5061030a610d94565b6040516103179190612839565b60405180910390f35b34801561032c57600080fd5b5061034760048036038101906103429190612880565b610dba565b005b34801561035557600080fd5b50610370600480360381019061036b9190612715565b610df2565b60405161037d91906126fa565b60405180910390f35b34801561039257600080fd5b506103ad60048036038101906103a89190612715565b610e0f565b6040516103ba91906126fa565b60405180910390f35b3480156103cf57600080fd5b506103ea60048036038101906103e59190612911565b610e27565b005b3480156103f857600080fd5b50610413600480360381019061040e9190612715565b610ee0565b60405161042091906129d0565b60405180910390f35b34801561043557600080fd5b50610450600480360381019061044b9190612715565b610f85565b60405161045d91906126fa565b60405180910390f35b34801561047257600080fd5b5061047b610fa2565b005b34801561048957600080fd5b50610492610fb6565b6040516104a29493929190612c7a565b60405180910390f35b3480156104b757600080fd5b506104c06112e7565b6040516104cd91906127fd565b60405180910390f35b3480156104e257600080fd5b506104fd60048036038101906104f89190612715565b61130b565b60405161050a91906129d0565b60405180910390f35b34801561051f57600080fd5b5061053a60048036038101906105359190612cdb565b6113ab565b005b34801561054857600080fd5b50610563600480360381019061055e9190612715565b6114f7565b6040516105709190612783565b60405180910390f35b34801561058557600080fd5b506105a0600480360381019061059b9190612715565b611534565b6040516105ad91906126fa565b60405180910390f35b3480156105c257600080fd5b506105cb61154c565b6040516105d89190612783565b60405180910390f35b3480156105ed57600080fd5b5061060860048036038101906106039190612715565b611575565b6040516106159190612783565b60405180910390f35b34801561062a57600080fd5b5061064560048036038101906106409190612715565b6115b2565b6040516106529190612d23565b60405180910390f35b34801561066757600080fd5b50610682600480360381019061067d9190612715565b611615565b60405161068f9190612783565b60405180910390f35b3480156106a457600080fd5b506106ad611648565b6040516106ba91906126fa565b60405180910390f35b3480156106cf57600080fd5b506106ea60048036038101906106e59190612d6a565b61166c565b005b3480156106f857600080fd5b50610713600480360381019061070e9190612715565b611d3f565b60405161072091906126fa565b60405180910390f35b34801561073557600080fd5b50610750600480360381019061074b9190612715565b611d57565b60405161075d9190612783565b60405180910390f35b34801561077257600080fd5b5061078d60048036038101906107889190612cdb565b611d8a565b005b34801561079b57600080fd5b506107b660048036038101906107b19190612cdb565b611ed6565b005b3480156107c457600080fd5b506107cd611f5c565b6040516107da9190612dde565b60405180910390f35b3480156107ef57600080fd5b5061080a60048036038101906108059190612715565b611f82565b005b6000806105dc848661081e9190612e28565b6108289190612e28565b9050612710811115610866576040517f85efd58900000000000000000000000000000000000000000000000000000000815260040160405180910390fd5b600086036108a0576040517facfb301300000000000000000000000000000000000000000000000000000000815260040160405180910390fd5b60008751036108db576040517fee4ca8b100000000000000000000000000000000000000000000000000000000815260040160405180910390fd5b600073ffffffffffffffffffffffffffffffffffffffff16600260009054906101000a900473ffffffffffffffffffffffffffffffffffffffff1673ffffffffffffffffffffffffffffffffffffffff1603610963576040517f71b20c6200000000000000000000000000000000000000000000000000000000815260040160405180910390fd5b7f00000000000000000000000000000000000000000000000000000000000000008310156109bd576040517f37b799a500000000000000000000000000000000000000000000000000000000815260040160405180910390fd5b6000600260009054906101000a900473ffffffffffffffffffffffffffffffffffffffff1673ffffffffffffffffffffffffffffffffffffffff1663dbe55e566040518163ffffffff1660e01b8152600401602060405180830381865afa158015610a2c573d6000803e3d6000fd5b505050506040513d601f19601f82011682018060405250810190610a509190612e71565b9050600073ffffffffffffffffffffffffffffffffffffffff168173ffffffffffffffffffffffffffffffffffffffff1603610ab8576040517ff6a08eae00000000000000000000000000000000000000000000000000000000815260040160405180910390fd5b610b053382867f000000000000000000000000000000000000000000000000000000000000000073ffffffffffffffffffffffffffffffffffffffff166121ce909392919063ffffffff16565b7f000000000000000000000000000000000000000000000000000000000000000073ffffffffffffffffffffffffffffffffffffffff163373ffffffffffffffffffffffffffffffffffffffff167fffd18a1023ac918d9072ec17fa0355d9bd30a611d0299d4aacb18029e7688fda86604051610b8291906126fa565b60405180910390a3600954925060096000815480929190610ba290612e9e565b919050555086600460008581526020019081526020016000208190555087600560008581526020019081526020016000209081610bdf91906130e8565b50856006600085815260200190815260200160002081905550846007600085815260200190815260200160002081905550336008600085815260200190815260200160002060006101000a81548173ffffffffffffffffffffffffffffffffffffffff021916908373ffffffffffffffffffffffffffffffffffffffff160217905550336003600085815260200190815260200160002060006101000a81548173ffffffffffffffffffffffffffffffffffffffff021916908373ffffffffffffffffffffffffffffffffffffffff1602179055503373ffffffffffffffffffffffffffffffffffffffff16837f48240be49192be4190bc912ec3c09783c73d36af905e398705aecbdb72e4ad8f8a8a8a8a8a604051610d039594939291906131ba565b60405180910390a3505095945050505050565b600060066000838152602001908152602001600020549050919050565b600a6020528060005260406000206000915054906101000a900473ffffffffffffffffffffffffffffffffffffffff1681565b6000600954905090565b7f000000000000000000000000000000000000000000000000000000000000000081565b600260009054906101000a900473ffffffffffffffffffffffffffffffffffffffff1681565b610dc2612250565b610ded82828573ffffffffffffffffffffffffffffffffffffffff166122d79092919063ffffffff16565b505050565b600060046000838152602001908152602001600020549050919050565b60066020528060005260406000206000915090505481565b610e2f612250565b60008273ffffffffffffffffffffffffffffffffffffffff1682604051610e5590613245565b60006040518083038185875af1925050503d8060008114610e92576040519150601f19603f3d011682016040523d82523d6000602084013e610e97565b606091505b5050905080610edb576040517f08c379a0000000000000000000000000000000000000000000000000000000008152600401610ed2906132a6565b60405180910390fd5b505050565b6060600560008381526020019081526020016000208054610f0090612f15565b80601f0160208091040260200160405190810160405280929190818152602001828054610f2c90612f15565b8015610f795780601f10610f4e57610100808354040283529160200191610f79565b820191906000526020600020905b815481529060010190602001808311610f5c57829003601f168201915b50505050509050919050565b600060076000838152602001908152602001600020549050919050565b610faa612250565b610fb46000612356565b565b60608060608060006001600954610fcd91906132c6565b90508067ffffffffffffffff811115610fe957610fe86124f3565b5b6040519080825280602002602001820160405280156110175781602001602082028036833780820191505090505b5094508067ffffffffffffffff811115611034576110336124f3565b5b60405190808252806020026020018201604052801561106757816020015b60608152602001906001900390816110525790505b5093508067ffffffffffffffff811115611084576110836124f3565b5b6040519080825280602002602001820160405280156110b25781602001602082028036833780820191505090505b5092508067ffffffffffffffff8111156110cf576110ce6124f3565b5b6040519080825280602002602001820160405280156110fd5781602001602082028036833780820191505090505b5091506000600190505b8181116112df57808660018361111d91906132c6565b8151811061112e5761112d6132fa565b5b60200260200101818152505060056000828152602001908152602001600020805461115890612f15565b80601f016020809104026020016040519081016040528092919081815260200182805461118490612f15565b80156111d15780601f106111a6576101008083540402835291602001916111d1565b820191906000526020600020905b8154815290600101906020018083116111b457829003601f168201915b5050505050856001836111e491906132c6565b815181106111f5576111f46132fa565b5b602002602001018190525060046000828152602001908152602001600020548460018361122291906132c6565b81518110611233576112326132fa565b5b6020026020010181815250506008600082815260200190815260200160002060009054906101000a900473ffffffffffffffffffffffffffffffffffffffff168360018361128191906132c6565b81518110611292576112916132fa565b5b602002602001019073ffffffffffffffffffffffffffffffffffffffff16908173ffffffffffffffffffffffffffffffffffffffff168152505080806112d790612e9e565b915050611107565b505090919293565b7f000000000000000000000000000000000000000000000000000000000000000081565b6005602052806000526040600020600091509050805461132a90612f15565b80601f016020809104026020016040519081016040528092919081815260200182805461135690612f15565b80156113a35780601f10611378576101008083540402835291602001916113a3565b820191906000526020600020905b81548152906001019060200180831161138657829003601f168201915b505050505081565b6113b3612250565b600073ffffffffffffffffffffffffffffffffffffffff168173ffffffffffffffffffffffffffffffffffffffff1603611419576040517ffd30bf9800000000000000000000000000000000000000000000000000000000815260040160405180910390fd5b8073ffffffffffffffffffffffffffffffffffffffff16600260009054906101000a900473ffffffffffffffffffffffffffffffffffffffff1673ffffffffffffffffffffffffffffffffffffffff1603156114f45780600260006101000a81548173ffffffffffffffffffffffffffffffffffffffff021916908373ffffffffffffffffffffffffffffffffffffffff1602179055508073ffffffffffffffffffffffffffffffffffffffff167fa3b5696cc0c176bfd21c25697f0593d86afe8744b8a606ef3b9ed0886762e78e60405160405180910390a25b50565b60006003600083815260200190815260200160002060009054906101000a900473ffffffffffffffffffffffffffffffffffffffff169050919050565b60076020528060005260406000206000915090505481565b60008060009054906101000a900473ffffffffffffffffffffffffffffffffffffffff16905090565b60006008600083815260200190815260200160002060009054906101000a900473ffffffffffffffffffffffffffffffffffffffff169050919050565b600080821180156115c4575060095482105b80156115e3575060006004600084815260200190815260200160002054115b801561160e5750600060056000848152602001908152602001600020805461160a90612f15565b9050115b9050919050565b60036020528060005260406000206000915054906101000a900473ffffffffffffffffffffffffffffffffffffffff1681565b7f000000000000000000000000000000000000000000000000000000000000000081565b600073ffffffffffffffffffffffffffffffffffffffff16600160009054906101000a900473ffffffffffffffffffffffffffffffffffffffff1673ffffffffffffffffffffffffffffffffffffffff16036116f4576040517f4c47d3f300000000000000000000000000000000000000000000000000000000815260040160405180910390fd5b600073ffffffffffffffffffffffffffffffffffffffff16600260009054906101000a900473ffffffffffffffffffffffffffffffffffffffff1673ffffffffffffffffffffffffffffffffffffffff160361177c576040517f71b20c6200000000000000000000000000000000000000000000000000000000815260040160405180910390fd5b60006004600085815260200190815260200160002054905060008114806117c2575060006005600086815260200190815260200160002080546117be90612f15565b9050145b156117f9576040517f8dc646a700000000000000000000000000000000000000000000000000000000815260040160405180910390fd5b60008073ffffffffffffffffffffffffffffffffffffffff168473ffffffffffffffffffffffffffffffffffffffff1614611a5557821561197c578373ffffffffffffffffffffffffffffffffffffffff16600a600087815260200190815260200160002060009054906101000a900473ffffffffffffffffffffffffffffffffffffffff1673ffffffffffffffffffffffffffffffffffffffff1614158061193d5750600160009054906101000a900473ffffffffffffffffffffffffffffffffffffffff1673ffffffffffffffffffffffffffffffffffffffff16631d65a8c285876040518363ffffffff1660e01b81526004016118fa929190613329565b602060405180830381865afa158015611917573d6000803e3d6000fd5b505050506040513d601f19601f8201168201806040525081019061193b9190613367565b155b15611974576040517f7ca804dc00000000000000000000000000000000000000000000000000000000815260040160405180910390fd5b839050611a54565b600160009054906101000a900473ffffffffffffffffffffffffffffffffffffffff1673ffffffffffffffffffffffffffffffffffffffff16631d65a8c285876040518363ffffffff1660e01b81526004016119d9929190613329565b602060405180830381865afa1580156119f6573d6000803e3d6000fd5b505050506040513d601f19601f82011682018060405250810190611a1a9190613367565b611a50576040517ffa8e3a1b00000000000000000000000000000000000000000000000000000000815260040160405180910390fd5b8390505b5b611aa23330847f000000000000000000000000000000000000000000000000000000000000000073ffffffffffffffffffffffffffffffffffffffff166121ce909392919063ffffffff16565b611b0f600260009054906101000a900473ffffffffffffffffffffffffffffffffffffffff16837f000000000000000000000000000000000000000000000000000000000000000073ffffffffffffffffffffffffffffffffffffffff166122d79092919063ffffffff16565b600260009054906101000a900473ffffffffffffffffffffffffffffffffffffffff1673ffffffffffffffffffffffffffffffffffffffff16633b849b888387846040518463ffffffff1660e01b8152600401611b6e93929190613394565b600060405180830381600087803b158015611b8857600080fd5b505af1158015611b9c573d6000803e3d6000fd5b505050506000600560008781526020019081526020016000208054611bc090612f15565b80601f0160208091040260200160405190810160405280929190818152602001828054611bec90612f15565b8015611c395780601f10611c0e57610100808354040283529160200191611c39565b820191906000526020600020905b815481529060010190602001808311611c1c57829003601f168201915b50505050509050600160009054906101000a900473ffffffffffffffffffffffffffffffffffffffff1673ffffffffffffffffffffffffffffffffffffffff1663356d4d503383896040518463ffffffff1660e01b8152600401611c9f939291906133cb565b600060405180830381600087803b158015611cb957600080fd5b505af1158015611ccd573d6000803e3d6000fd5b505050508473ffffffffffffffffffffffffffffffffffffffff163373ffffffffffffffffffffffffffffffffffffffff16877fba0af26dd01fb0644324b9a49b2ae1554f1c57c3b16c8fcae4382e224cf2054386604051611d2f91906126fa565b60405180910390a4505050505050565b60046020528060005260406000206000915090505481565b60086020528060005260406000206000915054906101000a900473ffffffffffffffffffffffffffffffffffffffff1681565b611d92612250565b600073ffffffffffffffffffffffffffffffffffffffff168173ffffffffffffffffffffffffffffffffffffffff1603611df8576040517fff8611a300000000000000000000000000000000000000000000000000000000815260040160405180910390fd5b8073ffffffffffffffffffffffffffffffffffffffff16600160009054906101000a900473ffffffffffffffffffffffffffffffffffffffff1673ffffffffffffffffffffffffffffffffffffffff160315611ed35780600160006101000a81548173ffffffffffffffffffffffffffffffffffffffff021916908373ffffffffffffffffffffffffffffffffffffffff1602179055508073ffffffffffffffffffffffffffffffffffffffff167fe3838d180a497b3d3e7484206904cd04f7a874e6e0392147797c3a3789c495b060405160405180910390a25b50565b611ede612250565b600073ffffffffffffffffffffffffffffffffffffffff168173ffffffffffffffffffffffffffffffffffffffff1603611f505760006040517f1e4fbdf7000000000000000000000000000000000000000000000000000000008152600401611f479190612783565b60405180910390fd5b611f5981612356565b50565b600160009054906101000a900473ffffffffffffffffffffffffffffffffffffffff1681565b60003373ffffffffffffffffffffffffffffffffffffffff166008600084815260200190815260200160002060009054906101000a900473ffffffffffffffffffffffffffffffffffffffff1673ffffffffffffffffffffffffffffffffffffffff1614905060008073ffffffffffffffffffffffffffffffffffffffff16600160009054906101000a900473ffffffffffffffffffffffffffffffffffffffff1673ffffffffffffffffffffffffffffffffffffffff16141580156120e25750600160009054906101000a900473ffffffffffffffffffffffffffffffffffffffff1673ffffffffffffffffffffffffffffffffffffffff16631d65a8c233856040518363ffffffff1660e01b81526004016120a0929190613329565b602060405180830381865afa1580156120bd573d6000803e3d6000fd5b505050506040513d601f19601f820116820180604052508101906120e19190613367565b5b9050811580156120f0575080155b15612127576040517fb6654c2100000000000000000000000000000000000000000000000000000000815260040160405180910390fd5b33600a600085815260200190815260200160002060006101000a81548173ffffffffffffffffffffffffffffffffffffffff021916908373ffffffffffffffffffffffffffffffffffffffff1602179055503373ffffffffffffffffffffffffffffffffffffffff16837f17ce41155041bf726f432926ec6b79c102d1a6ea4768c03ceed8ccfffe3f265060016040516121c19190612d23565b60405180910390a3505050565b61224a848573ffffffffffffffffffffffffffffffffffffffff166323b872dd86868660405160240161220393929190613409565b604051602081830303815290604052915060e01b6020820180517bffffffffffffffffffffffffffffffffffffffffffffffffffffffff838183161783525050505061241a565b50505050565b6122586124bc565b73ffffffffffffffffffffffffffffffffffffffff1661227661154c565b73ffffffffffffffffffffffffffffffffffffffff16146122d5576122996124bc565b6040517f118cdaa70000000000000000000000000000000000000000000000000000000081526004016122cc9190612783565b60405180910390fd5b565b612351838473ffffffffffffffffffffffffffffffffffffffff1663a9059cbb858560405160240161230a929190613329565b604051602081830303815290604052915060e01b6020820180517bffffffffffffffffffffffffffffffffffffffffffffffffffffffff838183161783525050505061241a565b505050565b60008060009054906101000a900473ffffffffffffffffffffffffffffffffffffffff169050816000806101000a81548173ffffffffffffffffffffffffffffffffffffffff021916908373ffffffffffffffffffffffffffffffffffffffff1602179055508173ffffffffffffffffffffffffffffffffffffffff168173ffffffffffffffffffffffffffffffffffffffff167f8be0079c531659141344cd1fd0a4f28419497f9722a3daafe3b4186f6b6457e060405160405180910390a35050565b600080602060008451602086016000885af18061243d576040513d6000823e3d81fd5b3d925060005191505060008214612458576001811415612474565b60008473ffffffffffffffffffffffffffffffffffffffff163b145b156124b657836040517f5274afe70000000000000000000000000000000000000000000000000000000081526004016124ad9190612783565b60405180910390fd5b50505050565b600033905090565b6000604051905090565b600080fd5b600080fd5b600080fd5b600080fd5b6000601f19601f8301169050919050565b7f4e487b7100000000000000000000000000000000000000000000000000000000600052604160045260246000fd5b61252b826124e2565b810181811067ffffffffffffffff8211171561254a576125496124f3565b5b80604052505050565b600061255d6124c4565b90506125698282612522565b919050565b600067ffffffffffffffff821115612589576125886124f3565b5b612592826124e2565b9050602081019050919050565b82818337600083830152505050565b60006125c16125bc8461256e565b612553565b9050828152602081018484840111156125dd576125dc6124dd565b5b6125e884828561259f565b509392505050565b600082601f830112612605576126046124d8565b5b81356126158482602086016125ae565b91505092915050565b6000819050919050565b6126318161261e565b811461263c57600080fd5b50565b60008135905061264e81612628565b92915050565b600080600080600060a086880312156126705761266f6124ce565b5b600086013567ffffffffffffffff81111561268e5761268d6124d3565b5b61269a888289016125f0565b95505060206126ab8882890161263f565b94505060406126bc8882890161263f565b93505060606126cd8882890161263f565b92505060806126de8882890161263f565b9150509295509295909350565b6126f48161261e565b82525050565b600060208201905061270f60008301846126eb565b92915050565b60006020828403121561272b5761272a6124ce565b5b60006127398482850161263f565b91505092915050565b600073ffffffffffffffffffffffffffffffffffffffff82169050919050565b600061276d82612742565b9050919050565b61277d81612762565b82525050565b60006020820190506127986000830184612774565b92915050565b6000819050919050565b60006127c36127be6127b984612742565b61279e565b612742565b9050919050565b60006127d5826127a8565b9050919050565b60006127e7826127ca565b9050919050565b6127f7816127dc565b82525050565b600060208201905061281260008301846127ee565b92915050565b6000612823826127ca565b9050919050565b61283381612818565b82525050565b600060208201905061284e600083018461282a565b92915050565b61285d81612762565b811461286857600080fd5b50565b60008135905061287a81612854565b92915050565b600080600060608486031215612899576128986124ce565b5b60006128a78682870161286b565b93505060206128b88682870161286b565b92505060406128c98682870161263f565b9150509250925092565b60006128de82612742565b9050919050565b6128ee816128d3565b81146128f957600080fd5b50565b60008135905061290b816128e5565b92915050565b60008060408385031215612928576129276124ce565b5b6000612936858286016128fc565b92505060206129478582860161263f565b9150509250929050565b600081519050919050565b600082825260208201905092915050565b60005b8381101561298b578082015181840152602081019050612970565b60008484015250505050565b60006129a282612951565b6129ac818561295c565b93506129bc81856020860161296d565b6129c5816124e2565b840191505092915050565b600060208201905081810360008301526129ea8184612997565b905092915050565b600081519050919050565b600082825260208201905092915050565b6000819050602082019050919050565b612a278161261e565b82525050565b6000612a398383612a1e565b60208301905092915050565b6000602082019050919050565b6000612a5d826129f2565b612a6781856129fd565b9350612a7283612a0e565b8060005b83811015612aa3578151612a8a8882612a2d565b9750612a9583612a45565b925050600181019050612a76565b5085935050505092915050565b600081519050919050565b600082825260208201905092915050565b6000819050602082019050919050565b600082825260208201905092915050565b6000612af882612951565b612b028185612adc565b9350612b1281856020860161296d565b612b1b816124e2565b840191505092915050565b6000612b328383612aed565b905092915050565b6000602082019050919050565b6000612b5282612ab0565b612b5c8185612abb565b935083602082028501612b6e85612acc565b8060005b85811015612baa5784840389528151612b8b8582612b26565b9450612b9683612b3a565b925060208a01995050600181019050612b72565b50829750879550505050505092915050565b600081519050919050565b600082825260208201905092915050565b6000819050602082019050919050565b612bf181612762565b82525050565b6000612c038383612be8565b60208301905092915050565b6000602082019050919050565b6000612c2782612bbc565b612c318185612bc7565b9350612c3c83612bd8565b8060005b83811015612c6d578151612c548882612bf7565b9750612c5f83612c0f565b925050600181019050612c40565b5085935050505092915050565b60006080820190508181036000830152612c948187612a52565b90508181036020830152612ca88186612b47565b90508181036040830152612cbc8185612a52565b90508181036060830152612cd08184612c1c565b905095945050505050565b600060208284031215612cf157612cf06124ce565b5b6000612cff8482850161286b565b91505092915050565b60008115159050919050565b612d1d81612d08565b82525050565b6000602082019050612d386000830184612d14565b92915050565b612d4781612d08565b8114612d5257600080fd5b50565b600081359050612d6481612d3e565b92915050565b600080600060608486031215612d8357612d826124ce565b5b6000612d918682870161263f565b9350506020612da28682870161286b565b9250506040612db386828701612d55565b9150509250925092565b6000612dc8826127ca565b9050919050565b612dd881612dbd565b82525050565b6000602082019050612df36000830184612dcf565b92915050565b7f4e487b7100000000000000000000000000000000000000000000000000000000600052601160045260246000fd5b6000612e338261261e565b9150612e3e8361261e565b9250828201905080821115612e5657612e55612df9565b5b92915050565b600081519050612e6b81612854565b92915050565b600060208284031215612e8757612e866124ce565b5b6000612e9584828501612e5c565b91505092915050565b6000612ea98261261e565b91507fffffffffffffffffffffffffffffffffffffffffffffffffffffffffffffffff8203612edb57612eda612df9565b5b600182019050919050565b7f4e487b7100000000000000000000000000000000000000000000000000000000600052602260045260246000fd5b60006002820490506001821680612f2d57607f821691505b602082108103612f4057612f3f612ee6565b5b50919050565b60008190508160005260206000209050919050565b60006020601f8301049050919050565b600082821b905092915050565b600060088302612fa87fffffffffffffffffffffffffffffffffffffffffffffffffffffffffffffffff82612f6b565b612fb28683612f6b565b95508019841693508086168417925050509392505050565b6000612fe5612fe0612fdb8461261e565b61279e565b61261e565b9050919050565b6000819050919050565b612fff83612fca565b61301361300b82612fec565b848454612f78565b825550505050565b600090565b61302861301b565b613033818484612ff6565b505050565b5b818110156130575761304c600082613020565b600181019050613039565b5050565b601f82111561309c5761306d81612f46565b61307684612f5b565b81016020851015613085578190505b61309961309185612f5b565b830182613038565b50505b505050565b600082821c905092915050565b60006130bf600019846008026130a1565b1980831691505092915050565b60006130d883836130ae565b9150826002028217905092915050565b6130f182612951565b67ffffffffffffffff81111561310a576131096124f3565b5b6131148254612f15565b61311f82828561305b565b600060209050601f8311600181146131525760008415613140578287015190505b61314a85826130cc565b8655506131b2565b601f19841661316086612f46565b60005b8281101561318857848901518255600182019150602085019450602081019050613163565b868310156131a557848901516131a1601f8916826130ae565b8355505b6001600288020188555050505b505050505050565b600060a08201905081810360008301526131d48188612997565b90506131e360208301876126eb565b6131f060408301866126eb565b6131fd60608301856126eb565b61320a60808301846126eb565b9695505050505050565b600081905092915050565b50565b600061322f600083613214565b915061323a8261321f565b600082019050919050565b600061325082613222565b9150819050919050565b7f5472616e73666572206661696c65642e00000000000000000000000000000000600082015250565b600061329060108361295c565b915061329b8261325a565b602082019050919050565b600060208201905081810360008301526132bf81613283565b9050919050565b60006132d18261261e565b91506132dc8361261e565b92508282039050818111156132f4576132f3612df9565b5b92915050565b7f4e487b7100000000000000000000000000000000000000000000000000000000600052603260045260246000fd5b600060408201905061333e6000830185612774565b61334b60208301846126eb565b9392505050565b60008151905061336181612d3e565b92915050565b60006020828403121561337d5761337c6124ce565b5b600061338b84828501613352565b91505092915050565b60006060820190506133a960008301866126eb565b6133b660208301856126eb565b6133c36040830184612774565b949350505050565b60006060820190506133e06000830186612774565b81810360208301526133f28185612997565b905061340160408301846126eb565b949350505050565b600060608201905061341e6000830186612774565b61342b6020830185612774565b61343860408301846126eb565b94935050505056fea26469706673582212204a64e5175d27f0a511ea787ab9587980bcafae1c4de29cfda49aba912319150864736f6c63430008160033",
  "linkReferences": {},
  "deployedLinkReferences": {}
}