{
  "_format": "hh-sol-artifact-1",
  "contractName": "MockEbookRevenueDistribution",
  "sourceName": "contracts/MockEbookRevenueDistribution.sol",
  "abi": [
    {
      "inputs": [
        {
          "internalType": "uint256",
          "name": "amount",
          "type": "uint256"
        },
        {
          "internalType": "uint256",
          "name": "ebookId",
          "type": "uint256"
        },
        {
          "internalType": "address",
          "name": "referrer",
          "type": "address"
        }
      ],
      "name": "distributeRevenue",
      "outputs": [
        {
          "internalType": "bool",
          "name": "",
          "type": "bool"
        }
      ],
      "stateMutability": "nonpayable",
      "type": "function"
    },
    {
      "inputs": [],
      "name": "distributeRevenueCalledWith",
      "outputs": [
        {
          "internalType": "uint256",
          "name": "",
          "type": "uint256"
        },
        {
          "internalType": "uint256",
          "name": "",
          "type": "uint256"
        },
        {
          "internalType": "address",
          "name": "",
          "type": "address"
        }
      ],
      "stateMutability": "view",
      "type": "function"
    },
    {
      "inputs": [],
      "name": "platformAddress",
      "outputs": [
        {
          "internalType": "address",
          "name": "",
          "type": "address"
        }
      ],
      "stateMutability": "view",
      "type": "function"
    },
    {
      "inputs": [
        {
          "internalType": "address",
          "name": "",
          "type": "address"
        },
        {
          "internalType": "uint256",
          "name": "",
          "type": "uint256"
        }
      ],
      "name": "receiveUploadFee",
      "outputs": [],
      "stateMutability": "nonpayable",
      "type": "function"
    },
    {
      "inputs": [
        {
          "internalType": "bool",
          "name": "success",
          "type": "bool"
        }
      ],
      "name": "setDistributeRevenueSuccess",
      "outputs": [],
      "stateMutability": "nonpayable",
      "type": "function"
    },
    {
      "inputs": [
        {
          "internalType": "bool",
          "name": "success",
          "type": "bool"
        }
      ],
      "name": "setReceiveUploadFeeSuccess",
      "outputs": [],
      "stateMutability": "nonpayable",
      "type": "function"
    }
  ],
  "bytecode": "0x608060405260016000806101000a81548160ff0219169083151502179055506001600060016101000a81548160ff021916908315150217905550731234567890123456789012345678901234567890600060026101000a81548173ffffffffffffffffffffffffffffffffffffffff021916908373ffffffffffffffffffffffffffffffffffffffff16021790555034801561009a57600080fd5b506105ca806100aa6000396000f3fe608060405234801561001057600080fd5b50600436106100625760003560e01c8063157d8af9146100675780633b849b88146100835780637da26781146100b3578063c6e36189146100cf578063dbe55e56146100eb578063f023070914610109575b600080fd5b610081600480360381019061007c9190610303565b610129565b005b61009d600480360381019061009891906103c4565b610146565b6040516100aa9190610426565b60405180910390f35b6100cd60048036038101906100c89190610303565b6101f2565b005b6100e960048036038101906100e49190610441565b61020e565b005b6100f361025f565b6040516101009190610490565b60405180910390f35b610111610285565b604051610120939291906104ba565b60405180910390f35b80600060016101000a81548160ff02191690831515021790555050565b600060405180606001604052808581526020018481526020018373ffffffffffffffffffffffffffffffffffffffff168152506001600082015181600001556020820151816001015560408201518160020160006101000a81548173ffffffffffffffffffffffffffffffffffffffff021916908373ffffffffffffffffffffffffffffffffffffffff160217905550905050600060019054906101000a900460ff1690509392505050565b806000806101000a81548160ff02191690831515021790555050565b60008054906101000a900460ff1661025b576040517f08c379a000000000000000000000000000000000000000000000000000000000815260040161025290610574565b60405180910390fd5b5050565b600060029054906101000a900473ffffffffffffffffffffffffffffffffffffffff1681565b60008060006001600001546001800154600160020160009054906101000a900473ffffffffffffffffffffffffffffffffffffffff16925092509250909192565b600080fd5b60008115159050919050565b6102e0816102cb565b81146102eb57600080fd5b50565b6000813590506102fd816102d7565b92915050565b600060208284031215610319576103186102c6565b5b6000610327848285016102ee565b91505092915050565b6000819050919050565b61034381610330565b811461034e57600080fd5b50565b6000813590506103608161033a565b92915050565b600073ffffffffffffffffffffffffffffffffffffffff82169050919050565b600061039182610366565b9050919050565b6103a181610386565b81146103ac57600080fd5b50565b6000813590506103be81610398565b92915050565b6000806000606084860312156103dd576103dc6102c6565b5b60006103eb86828701610351565b93505060206103fc86828701610351565b925050604061040d868287016103af565b9150509250925092565b610420816102cb565b82525050565b600060208201905061043b6000830184610417565b92915050565b60008060408385031215610458576104576102c6565b5b6000610466858286016103af565b925050602061047785828601610351565b9150509250929050565b61048a81610386565b82525050565b60006020820190506104a56000830184610481565b92915050565b6104b481610330565b82525050565b60006060820190506104cf60008301866104ab565b6104dc60208301856104ab565b6104e96040830184610481565b949350505050565b600082825260208201905092915050565b7f4d6f636b45626f6f6b526576656e7565446973747269627574696f6e3a20726560008201527f636569766555706c6f6164466565206661696c65640000000000000000000000602082015250565b600061055e6035836104f1565b915061056982610502565b604082019050919050565b6000602082019050818103600083015261058d81610551565b905091905056fea264697066735822122080ce2cca4777766c7e55852f15493be857b9406cb1f974f506b2ff5f62e677fc64736f6c63430008160033",
  "linkReferences": {},
  "deployedLinkReferences": {}
}