{
  "_format": "hh-sol-artifact-1",
  "contractName": "MockSalesDistributor",
  "sourceName": "contracts/MockSalesDistributor.sol",
  "abi": [
    {
      "inputs": [
        {
          "internalType": "address",
          "name": "_revenueDistribution",
          "type": "address"
        },
        {
          "internalType": "uint256",
          "name": "_amount",
          "type": "uint256"
        },
        {
          "internalType": "uint256",
          "name": "_ebookId",
          "type": "uint256"
        },
        {
          "internalType": "address",
          "name": "_referrer",
          "type": "address"
        }
      ],
      "name": "callDistributeRevenue",
      "outputs": [],
      "stateMutability": "nonpayable",
      "type": "function"
    },
    {
      "inputs": [
        {
          "internalType": "uint256",
          "name": "_ebookId",
          "type": "uint256"
        },
        {
          "internalType": "address",
          "name": "_authorAddress",
          "type": "address"
        }
      ],
      "name": "defineEbookForSale",
      "outputs": [],
      "stateMutability": "nonpayable",
      "type": "function"
    },
    {
      "inputs": [
        {
          "internalType": "uint256",
          "name": "",
          "type": "uint256"
        }
      ],
      "name": "ebookAuthorShareBPS",
      "outputs": [
        {
          "internalType": "uint256",
          "name": "",
          "type": "uint256"
        }
      ],
      "stateMutability": "view",
      "type": "function"
    },
    {
      "inputs": [
        {
          "internalType": "uint256",
          "name": "",
          "type": "uint256"
        }
      ],
      "name": "ebookAuthors",
      "outputs": [
        {
          "internalType": "address",
          "name": "",
          "type": "address"
        }
      ],
      "stateMutability": "view",
      "type": "function"
    },
    {
      "inputs": [
        {
          "internalType": "uint256",
          "name": "",
          "type": "uint256"
        }
      ],
      "name": "ebookReferrerShareBPS",
      "outputs": [
        {
          "internalType": "uint256",
          "name": "",
          "type": "uint256"
        }
      ],
      "stateMutability": "view",
      "type": "function"
    },
    {
      "inputs": [
        {
          "internalType": "uint256",
          "name": "_ebookId",
          "type": "uint256"
        }
      ],
      "name": "getEbookAuthor",
      "outputs": [
        {
          "internalType": "address",
          "name": "",
          "type": "address"
        }
      ],
      "stateMutability": "view",
      "type": "function"
    },
    {
      "inputs": [
        {
          "internalType": "uint256",
          "name": "_ebookId",
          "type": "uint256"
        }
      ],
      "name": "getEbookAuthorShareBPS",
      "outputs": [
        {
          "internalType": "uint256",
          "name": "",
          "type": "uint256"
        }
      ],
      "stateMutability": "view",
      "type": "function"
    },
    {
      "inputs": [
        {
          "internalType": "uint256",
          "name": "_ebookId",
          "type": "uint256"
        }
      ],
      "name": "getEbookReferrerShareBPS",
      "outputs": [
        {
          "internalType": "uint256",
          "name": "",
          "type": "uint256"
        }
      ],
      "stateMutability": "view",
      "type": "function"
    },
    {
      "inputs": [
        {
          "internalType": "uint256",
          "name": "_ebookId",
          "type": "uint256"
        },
        {
          "internalType": "uint256",
          "name": "_authorShareBPS",
          "type": "uint256"
        }
      ],
      "name": "setEbookAuthorShareBPS",
      "outputs": [],
      "stateMutability": "nonpayable",
      "type": "function"
    },
    {
      "inputs": [
        {
          "internalType": "uint256",
          "name": "_ebookId",
          "type": "uint256"
        },
        {
          "internalType": "uint256",
          "name": "_referrerShareBPS",
          "type": "uint256"
        }
      ],
      "name": "setEbookReferrerShareBPS",
      "outputs": [],
      "stateMutability": "nonpayable",
      "type": "function"
    }
  ],
  "bytecode": "0x608060405234801561001057600080fd5b5061084f806100206000396000f3fe608060405234801561001057600080fd5b506004361061009e5760003560e01c806389e68c3e1161006657806389e68c3e1461017f578063bab355e0146101af578063be11b785146101cb578063c0ccd14e146101fb578063f9c2f05f146102175761009e565b80630cb63563146100a35780634cd5c8ee146100d357806356aba9991461010357806365ca56fb1461011f5780638947d3571461014f575b600080fd5b6100bd60048036038101906100b8919061054c565b610233565b6040516100ca9190610588565b60405180910390f35b6100ed60048036038101906100e8919061054c565b61024f565b6040516100fa9190610588565b60405180910390f35b61011d60048036038101906101189190610601565b610267565b005b6101396004803603810190610134919061054c565b6103df565b6040516101469190610588565b60405180910390f35b6101696004803603810190610164919061054c565b6103fc565b6040516101769190610677565b60405180910390f35b6101996004803603810190610194919061054c565b610439565b6040516101a69190610588565b60405180910390f35b6101c960048036038101906101c49190610692565b610451565b005b6101e560048036038101906101e0919061054c565b6104a7565b6040516101f29190610677565b60405180910390f35b610215600480360381019061021091906106d2565b6104da565b005b610231600480360381019061022c91906106d2565b6104f5565b005b6000806000838152602001908152602001600020549050919050565b60006020528060005260406000206000915090505481565b600084905060008173ffffffffffffffffffffffffffffffffffffffff166372da776e6040518163ffffffff1660e01b8152600401602060405180830381865afa1580156102b9573d6000803e3d6000fd5b505050506040513d601f19601f820116820180604052508101906102dd9190610727565b90506000851115610368578073ffffffffffffffffffffffffffffffffffffffff1663a9059cbb87876040518363ffffffff1660e01b8152600401610323929190610754565b6020604051808303816000875af1158015610342573d6000803e3d6000fd5b505050506040513d601f19601f8201168201806040525081019061036691906107b5565b505b8173ffffffffffffffffffffffffffffffffffffffff16633b849b888686866040518463ffffffff1660e01b81526004016103a5939291906107e2565b600060405180830381600087803b1580156103bf57600080fd5b505af11580156103d3573d6000803e3d6000fd5b50505050505050505050565b600060016000838152602001908152602001600020549050919050565b60006002600083815260200190815260200160002060009054906101000a900473ffffffffffffffffffffffffffffffffffffffff169050919050565b60016020528060005260406000206000915090505481565b806002600084815260200190815260200160002060006101000a81548173ffffffffffffffffffffffffffffffffffffffff021916908373ffffffffffffffffffffffffffffffffffffffff1602179055505050565b60026020528060005260406000206000915054906101000a900473ffffffffffffffffffffffffffffffffffffffff1681565b80600080848152602001908152602001600020819055505050565b8060016000848152602001908152602001600020819055505050565b600080fd5b6000819050919050565b61052981610516565b811461053457600080fd5b50565b60008135905061054681610520565b92915050565b60006020828403121561056257610561610511565b5b600061057084828501610537565b91505092915050565b61058281610516565b82525050565b600060208201905061059d6000830184610579565b92915050565b600073ffffffffffffffffffffffffffffffffffffffff82169050919050565b60006105ce826105a3565b9050919050565b6105de816105c3565b81146105e957600080fd5b50565b6000813590506105fb816105d5565b92915050565b6000806000806080858703121561061b5761061a610511565b5b6000610629878288016105ec565b945050602061063a87828801610537565b935050604061064b87828801610537565b925050606061065c878288016105ec565b91505092959194509250565b610671816105c3565b82525050565b600060208201905061068c6000830184610668565b92915050565b600080604083850312156106a9576106a8610511565b5b60006106b785828601610537565b92505060206106c8858286016105ec565b9150509250929050565b600080604083850312156106e9576106e8610511565b5b60006106f785828601610537565b925050602061070885828601610537565b9150509250929050565b600081519050610721816105d5565b92915050565b60006020828403121561073d5761073c610511565b5b600061074b84828501610712565b91505092915050565b60006040820190506107696000830185610668565b6107766020830184610579565b9392505050565b60008115159050919050565b6107928161077d565b811461079d57600080fd5b50565b6000815190506107af81610789565b92915050565b6000602082840312156107cb576107ca610511565b5b60006107d9848285016107a0565b91505092915050565b60006060820190506107f76000830186610579565b6108046020830185610579565b6108116040830184610668565b94935050505056fea264697066735822122024b4729ed2c3d065f5082ab4ff6dcb1f1eb322d7d9c7ff7fbf322697ab51984564736f6c63430008160033",
  "linkReferences": {},
  "deployedLinkReferences": {}
}